{
  "contractName": "ChildERC721Proxified",
  "abi": [
    {
      "inputs": [],
      "payable": false,
      "stateMutability": "nonpayable",
      "type": "constructor"
    },
    {
      "anonymous": false,
      "inputs": [
        {
          "indexed": true,
          "internalType": "address",
          "name": "owner",
          "type": "address"
        },
        {
          "indexed": true,
          "internalType": "address",
          "name": "approved",
          "type": "address"
        },
        {
          "indexed": true,
          "internalType": "uint256",
          "name": "tokenId",
          "type": "uint256"
        }
      ],
      "name": "Approval",
      "type": "event"
    },
    {
      "anonymous": false,
      "inputs": [
        {
          "indexed": true,
          "internalType": "address",
          "name": "owner",
          "type": "address"
        },
        {
          "indexed": true,
          "internalType": "address",
          "name": "operator",
          "type": "address"
        },
        {
          "indexed": false,
          "internalType": "bool",
          "name": "approved",
          "type": "bool"
        }
      ],
      "name": "ApprovalForAll",
      "type": "event"
    },
    {
      "anonymous": false,
      "inputs": [
        {
          "indexed": true,
          "internalType": "address",
          "name": "previousAddress",
          "type": "address"
        },
        {
          "indexed": true,
          "internalType": "address",
          "name": "newAddress",
          "type": "address"
        }
      ],
      "name": "ChildChainChanged",
      "type": "event"
    },
    {
      "anonymous": false,
      "inputs": [
        {
          "indexed": true,
          "internalType": "address",
          "name": "token",
          "type": "address"
        },
        {
          "indexed": true,
          "internalType": "address",
          "name": "from",
          "type": "address"
        },
        {
          "indexed": false,
          "internalType": "uint256",
          "name": "tokenId",
          "type": "uint256"
        }
      ],
      "name": "Deposit",
      "type": "event"
    },
    {
      "anonymous": false,
      "inputs": [
        {
          "indexed": true,
          "internalType": "address",
          "name": "token",
          "type": "address"
        },
        {
          "indexed": true,
          "internalType": "address",
          "name": "from",
          "type": "address"
        },
        {
          "indexed": true,
          "internalType": "address",
          "name": "to",
          "type": "address"
        },
        {
          "indexed": false,
          "internalType": "uint256",
          "name": "amount",
          "type": "uint256"
        },
        {
          "indexed": false,
          "internalType": "uint256",
          "name": "input1",
          "type": "uint256"
        },
        {
          "indexed": false,
          "internalType": "uint256",
          "name": "input2",
          "type": "uint256"
        },
        {
          "indexed": false,
          "internalType": "uint256",
          "name": "output1",
          "type": "uint256"
        },
        {
          "indexed": false,
          "internalType": "uint256",
          "name": "output2",
          "type": "uint256"
        }
      ],
      "name": "LogFeeTransfer",
      "type": "event"
    },
    {
      "anonymous": false,
      "inputs": [
        {
          "indexed": true,
          "internalType": "address",
          "name": "token",
          "type": "address"
        },
        {
          "indexed": true,
          "internalType": "address",
          "name": "from",
          "type": "address"
        },
        {
          "indexed": true,
          "internalType": "address",
          "name": "to",
          "type": "address"
        },
        {
          "indexed": false,
          "internalType": "uint256",
          "name": "tokenId",
          "type": "uint256"
        }
      ],
      "name": "LogTransfer",
      "type": "event"
    },
    {
      "anonymous": false,
      "inputs": [
        {
          "indexed": true,
          "internalType": "address",
          "name": "previousOwner",
          "type": "address"
        },
        {
          "indexed": true,
          "internalType": "address",
          "name": "newOwner",
          "type": "address"
        }
      ],
      "name": "OwnershipTransferred",
      "type": "event"
    },
    {
      "anonymous": false,
      "inputs": [
        {
          "indexed": true,
          "internalType": "address",
          "name": "previousAddress",
          "type": "address"
        },
        {
          "indexed": true,
          "internalType": "address",
          "name": "newAddress",
          "type": "address"
        }
      ],
      "name": "ParentChanged",
      "type": "event"
    },
    {
      "anonymous": false,
      "inputs": [
        {
          "indexed": true,
          "internalType": "address",
          "name": "previousAddress",
          "type": "address"
        },
        {
          "indexed": true,
          "internalType": "address",
          "name": "newAddress",
          "type": "address"
        }
      ],
      "name": "StateSyncerAddressChanged",
      "type": "event"
    },
    {
      "anonymous": false,
      "inputs": [
        {
          "indexed": true,
          "internalType": "address",
          "name": "from",
          "type": "address"
        },
        {
          "indexed": true,
          "internalType": "address",
          "name": "to",
          "type": "address"
        },
        {
          "indexed": true,
          "internalType": "uint256",
          "name": "tokenId",
          "type": "uint256"
        }
      ],
      "name": "Transfer",
      "type": "event"
    },
    {
      "anonymous": false,
      "inputs": [
        {
          "indexed": true,
          "internalType": "address",
          "name": "token",
          "type": "address"
        },
        {
          "indexed": true,
          "internalType": "address",
          "name": "from",
          "type": "address"
        },
        {
          "indexed": false,
          "internalType": "uint256",
          "name": "tokenId",
          "type": "uint256"
        }
      ],
      "name": "Withdraw",
      "type": "event"
    },
    {
      "constant": true,
      "inputs": [],
      "name": "CHAINID",
      "outputs": [
        {
          "internalType": "uint256",
          "name": "",
          "type": "uint256"
        }
      ],
      "payable": false,
      "stateMutability": "view",
      "type": "function"
    },
    {
      "constant": true,
      "inputs": [],
      "name": "EIP712_DOMAIN_HASH",
      "outputs": [
        {
          "internalType": "bytes32",
          "name": "",
          "type": "bytes32"
        }
      ],
      "payable": false,
      "stateMutability": "view",
      "type": "function"
    },
    {
      "constant": true,
      "inputs": [],
      "name": "EIP712_DOMAIN_SCHEMA_HASH",
      "outputs": [
        {
          "internalType": "bytes32",
          "name": "",
          "type": "bytes32"
        }
      ],
      "payable": false,
      "stateMutability": "view",
      "type": "function"
    },
    {
      "constant": true,
      "inputs": [],
      "name": "EIP712_TOKEN_TRANSFER_ORDER_SCHEMA_HASH",
      "outputs": [
        {
          "internalType": "bytes32",
          "name": "",
          "type": "bytes32"
        }
      ],
      "payable": false,
      "stateMutability": "view",
      "type": "function"
    },
    {
      "constant": false,
      "inputs": [
        {
          "internalType": "address",
          "name": "to",
          "type": "address"
        },
        {
          "internalType": "uint256",
          "name": "tokenId",
          "type": "uint256"
        }
      ],
      "name": "approve",
      "outputs": [],
      "payable": false,
      "stateMutability": "nonpayable",
      "type": "function"
    },
    {
      "constant": true,
      "inputs": [
        {
          "internalType": "address",
          "name": "owner",
          "type": "address"
        }
      ],
      "name": "balanceOf",
      "outputs": [
        {
          "internalType": "uint256",
          "name": "",
          "type": "uint256"
        }
      ],
      "payable": false,
      "stateMutability": "view",
      "type": "function"
    },
    {
      "constant": false,
      "inputs": [
        {
          "internalType": "address",
          "name": "newAddress",
          "type": "address"
        }
      ],
      "name": "changeChildChain",
      "outputs": [],
      "payable": false,
      "stateMutability": "nonpayable",
      "type": "function"
    },
    {
      "constant": false,
      "inputs": [
        {
          "internalType": "address",
          "name": "newAddress",
          "type": "address"
        }
      ],
      "name": "changeStateSyncerAddress",
      "outputs": [],
      "payable": false,
      "stateMutability": "nonpayable",
      "type": "function"
    },
    {
      "constant": true,
      "inputs": [],
      "name": "childChain",
      "outputs": [
        {
          "internalType": "address",
          "name": "",
          "type": "address"
        }
      ],
      "payable": false,
      "stateMutability": "view",
      "type": "function"
    },
    {
      "constant": false,
      "inputs": [
        {
          "internalType": "address",
          "name": "user",
          "type": "address"
        },
        {
          "internalType": "uint256",
          "name": "tokenId",
          "type": "uint256"
        }
      ],
      "name": "deposit",
      "outputs": [],
      "payable": false,
      "stateMutability": "nonpayable",
      "type": "function"
    },
    {
      "constant": true,
      "inputs": [
        {
          "internalType": "bytes32",
          "name": "",
          "type": "bytes32"
        }
      ],
      "name": "disabledHashes",
      "outputs": [
        {
          "internalType": "bool",
          "name": "",
          "type": "bool"
        }
      ],
      "payable": false,
      "stateMutability": "view",
      "type": "function"
    },
    {
      "constant": true,
      "inputs": [
        {
          "internalType": "bytes32",
          "name": "hash",
          "type": "bytes32"
        },
        {
          "internalType": "bytes",
          "name": "sig",
          "type": "bytes"
        }
      ],
      "name": "ecrecovery",
      "outputs": [
        {
          "internalType": "address",
          "name": "result",
          "type": "address"
        }
      ],
      "payable": false,
      "stateMutability": "pure",
      "type": "function"
    },
    {
      "constant": true,
      "inputs": [
        {
          "internalType": "uint256",
          "name": "tokenId",
          "type": "uint256"
        }
      ],
      "name": "getApproved",
      "outputs": [
        {
          "internalType": "address",
          "name": "operator",
          "type": "address"
        }
      ],
      "payable": false,
      "stateMutability": "view",
      "type": "function"
    },
    {
      "constant": true,
      "inputs": [
        {
          "internalType": "address",
          "name": "spender",
          "type": "address"
        },
        {
          "internalType": "uint256",
          "name": "tokenIdOrAmount",
          "type": "uint256"
        },
        {
          "internalType": "bytes32",
          "name": "data",
          "type": "bytes32"
        },
        {
          "internalType": "uint256",
          "name": "expiration",
          "type": "uint256"
        }
      ],
      "name": "getTokenTransferOrderHash",
      "outputs": [
        {
          "internalType": "bytes32",
          "name": "orderHash",
          "type": "bytes32"
        }
      ],
      "payable": false,
      "stateMutability": "view",
      "type": "function"
    },
    {
      "constant": true,
      "inputs": [
        {
          "internalType": "address",
          "name": "owner",
          "type": "address"
        },
        {
          "internalType": "address",
          "name": "operator",
          "type": "address"
        }
      ],
      "name": "isApprovedForAll",
      "outputs": [
        {
          "internalType": "bool",
          "name": "",
          "type": "bool"
        }
      ],
      "payable": false,
      "stateMutability": "view",
      "type": "function"
    },
    {
      "constant": true,
      "inputs": [],
      "name": "isOnlyStateSyncerContract",
      "outputs": [
        {
          "internalType": "bool",
          "name": "",
          "type": "bool"
        }
      ],
      "payable": false,
      "stateMutability": "view",
      "type": "function"
    },
    {
      "constant": true,
      "inputs": [],
      "name": "name",
      "outputs": [
        {
          "internalType": "string",
          "name": "",
          "type": "string"
        }
      ],
      "payable": false,
      "stateMutability": "view",
      "type": "function"
    },
    {
      "constant": true,
      "inputs": [],
      "name": "networkId",
      "outputs": [
        {
          "internalType": "bytes",
          "name": "",
          "type": "bytes"
        }
      ],
      "payable": false,
      "stateMutability": "view",
      "type": "function"
    },
    {
      "constant": false,
      "inputs": [
        {
          "internalType": "uint256",
          "name": "",
          "type": "uint256"
        },
        {
          "internalType": "bytes",
          "name": "data",
          "type": "bytes"
        }
      ],
      "name": "onStateReceive",
      "outputs": [],
      "payable": false,
      "stateMutability": "nonpayable",
      "type": "function"
    },
    {
      "constant": true,
      "inputs": [],
      "name": "owner",
      "outputs": [
        {
          "internalType": "address",
          "name": "",
          "type": "address"
        }
      ],
      "payable": false,
      "stateMutability": "view",
      "type": "function"
    },
    {
      "constant": true,
      "inputs": [
        {
          "internalType": "uint256",
          "name": "tokenId",
          "type": "uint256"
        }
      ],
      "name": "ownerOf",
      "outputs": [
        {
          "internalType": "address",
          "name": "",
          "type": "address"
        }
      ],
      "payable": false,
      "stateMutability": "view",
      "type": "function"
    },
    {
      "constant": true,
      "inputs": [],
      "name": "parent",
      "outputs": [
        {
          "internalType": "address",
          "name": "",
          "type": "address"
        }
      ],
      "payable": false,
      "stateMutability": "view",
      "type": "function"
    },
    {
      "constant": false,
      "inputs": [],
      "name": "renounceOwnership",
      "outputs": [],
      "payable": false,
      "stateMutability": "nonpayable",
      "type": "function"
    },
    {
      "constant": false,
      "inputs": [
        {
          "internalType": "address",
          "name": "from",
          "type": "address"
        },
        {
          "internalType": "address",
          "name": "to",
          "type": "address"
        },
        {
          "internalType": "uint256",
          "name": "tokenId",
          "type": "uint256"
        }
      ],
      "name": "safeTransferFrom",
      "outputs": [],
      "payable": false,
      "stateMutability": "nonpayable",
      "type": "function"
    },
    {
      "constant": false,
      "inputs": [
        {
          "internalType": "address",
          "name": "from",
          "type": "address"
        },
        {
          "internalType": "address",
          "name": "to",
          "type": "address"
        },
        {
          "internalType": "uint256",
          "name": "tokenId",
          "type": "uint256"
        },
        {
          "internalType": "bytes",
          "name": "_data",
          "type": "bytes"
        }
      ],
      "name": "safeTransferFrom",
      "outputs": [],
      "payable": false,
      "stateMutability": "nonpayable",
      "type": "function"
    },
    {
      "constant": false,
      "inputs": [
        {
          "internalType": "address",
          "name": "operator",
          "type": "address"
        },
        {
          "internalType": "bool",
          "name": "_approved",
          "type": "bool"
        }
      ],
      "name": "setApprovalForAll",
      "outputs": [],
      "payable": false,
      "stateMutability": "nonpayable",
      "type": "function"
    },
    {
      "constant": false,
      "inputs": [
        {
          "internalType": "address",
          "name": "newAddress",
          "type": "address"
        }
      ],
      "name": "setParent",
      "outputs": [],
      "payable": false,
      "stateMutability": "nonpayable",
      "type": "function"
    },
    {
      "constant": true,
      "inputs": [],
      "name": "stateSyncer",
      "outputs": [
        {
          "internalType": "address",
          "name": "",
          "type": "address"
        }
      ],
      "payable": false,
      "stateMutability": "view",
      "type": "function"
    },
    {
      "constant": true,
      "inputs": [
        {
          "internalType": "bytes4",
          "name": "interfaceId",
          "type": "bytes4"
        }
      ],
      "name": "supportsInterface",
      "outputs": [
        {
          "internalType": "bool",
          "name": "",
          "type": "bool"
        }
      ],
      "payable": false,
      "stateMutability": "view",
      "type": "function"
    },
    {
      "constant": true,
      "inputs": [],
      "name": "symbol",
      "outputs": [
        {
          "internalType": "string",
          "name": "",
          "type": "string"
        }
      ],
      "payable": false,
      "stateMutability": "view",
      "type": "function"
    },
    {
      "constant": true,
      "inputs": [],
      "name": "token",
      "outputs": [
        {
          "internalType": "address",
          "name": "",
          "type": "address"
        }
      ],
      "payable": false,
      "stateMutability": "view",
      "type": "function"
    },
    {
      "constant": true,
      "inputs": [
        {
          "internalType": "uint256",
          "name": "index",
          "type": "uint256"
        }
      ],
      "name": "tokenByIndex",
      "outputs": [
        {
          "internalType": "uint256",
          "name": "",
          "type": "uint256"
        }
      ],
      "payable": false,
      "stateMutability": "view",
      "type": "function"
    },
    {
      "constant": true,
      "inputs": [
        {
          "internalType": "address",
          "name": "owner",
          "type": "address"
        },
        {
          "internalType": "uint256",
          "name": "index",
          "type": "uint256"
        }
      ],
      "name": "tokenOfOwnerByIndex",
      "outputs": [
        {
          "internalType": "uint256",
          "name": "",
          "type": "uint256"
        }
      ],
      "payable": false,
      "stateMutability": "view",
      "type": "function"
    },
    {
      "constant": true,
      "inputs": [
        {
          "internalType": "uint256",
          "name": "tokenId",
          "type": "uint256"
        }
      ],
      "name": "tokenURI",
      "outputs": [
        {
          "internalType": "string",
          "name": "",
          "type": "string"
        }
      ],
      "payable": false,
      "stateMutability": "view",
      "type": "function"
    },
    {
      "constant": true,
      "inputs": [],
      "name": "totalSupply",
      "outputs": [
        {
          "internalType": "uint256",
          "name": "",
          "type": "uint256"
        }
      ],
      "payable": false,
      "stateMutability": "view",
      "type": "function"
    },
    {
      "constant": false,
      "inputs": [
        {
          "internalType": "address",
          "name": "from",
          "type": "address"
        },
        {
          "internalType": "address",
          "name": "to",
          "type": "address"
        },
        {
          "internalType": "uint256",
          "name": "tokenId",
          "type": "uint256"
        }
      ],
      "name": "transferFrom",
      "outputs": [],
      "payable": false,
      "stateMutability": "nonpayable",
      "type": "function"
    },
    {
      "constant": false,
      "inputs": [
        {
          "internalType": "address",
          "name": "newOwner",
          "type": "address"
        }
      ],
      "name": "transferOwnership",
      "outputs": [],
      "payable": false,
      "stateMutability": "nonpayable",
      "type": "function"
    },
    {
      "constant": false,
      "inputs": [
        {
          "internalType": "bytes",
          "name": "sig",
          "type": "bytes"
        },
        {
          "internalType": "uint256",
          "name": "tokenId",
          "type": "uint256"
        },
        {
          "internalType": "bytes32",
          "name": "data",
          "type": "bytes32"
        },
        {
          "internalType": "uint256",
          "name": "expiration",
          "type": "uint256"
        },
        {
          "internalType": "address",
          "name": "to",
          "type": "address"
        }
      ],
      "name": "transferWithSig",
      "outputs": [
        {
          "internalType": "address",
          "name": "",
          "type": "address"
        }
      ],
      "payable": false,
      "stateMutability": "nonpayable",
      "type": "function"
    },
    {
      "constant": false,
      "inputs": [
        {
          "internalType": "uint256",
          "name": "tokenId",
          "type": "uint256"
        }
      ],
      "name": "withdraw",
      "outputs": [],
      "payable": true,
      "stateMutability": "payable",
      "type": "function"
    },
    {
      "constant": false,
      "inputs": [
        {
          "internalType": "address",
          "name": "_token",
          "type": "address"
        },
        {
          "internalType": "string",
          "name": "_name",
          "type": "string"
        },
        {
          "internalType": "string",
          "name": "_symbol",
          "type": "string"
        }
      ],
      "name": "initialize",
      "outputs": [],
      "payable": false,
      "stateMutability": "nonpayable",
      "type": "function"
    },
    {
      "constant": true,
      "inputs": [],
      "name": "isOwner",
      "outputs": [
        {
          "internalType": "bool",
          "name": "",
          "type": "bool"
        }
      ],
      "payable": false,
      "stateMutability": "view",
      "type": "function"
    }
  ],
  "bytecode": "0x60806040526012805460ff60a01b191690553480156200001e57600080fd5b50604080516020808201835260008083528351918201845280825280546001600160a01b031916331780825593516001948594939284928492849284926001600160a01b0392909216917f8be0079c531659141344cd1fd0a4f28419497f9722a3daafe3b4186f6b6457e0908290a360405180608001604052806052815260200162002aee605291396040516020018082805190602001908083835b60208310620000db5780518252601f199092019160209182019101620000ba565b51815160209384036101000a60001901801990921691161790526040805192909401828103601f190183528085528251928201929092208285018552600d83527f4d61746963204e6574776f726b00000000000000000000000000000000000000928201929092528351808501855260018082527f3100000000000000000000000000000000000000000000000000000000000000918301919091528451808301939093527fd26430275d0d30693378daeb558f6ed30c3a48ba5d665f52c16608e1c41b5cd7838601527fc89efdaa54c0f20c7adf612882df0950f5a951637e0307cdcb4c672f298b8bc66060840152613a9960808401523060a0808501919091528551808503909101815260c09093019094528151910120909155506200022791507f01ffc9a70000000000000000000000000000000000000000000000000000000090506200037e565b6200025b7f80ac58cd000000000000000000000000000000000000000000000000000000006001600160e01b036200037e16565b6200028f7f780e9d63000000000000000000000000000000000000000000000000000000006001600160e01b036200037e16565b8151620002a490600f906020850190620003eb565b508051620002ba906010906020840190620003eb565b50620002ef7f5b5e139f000000000000000000000000000000000000000000000000000000006001600160e01b036200037e16565b5050601280546001600160a01b03191661100117908190556040516001600160a01b03919091169250600091507f98e6a46aa139a033b9c7f3ae4ad1c103ffdce3e7cf509326808ba8c4b5af11c0908290a36001600160a01b0383166200035557600080fd5b5050600280546001600160a01b0319166001600160a01b03929092169190911790555062000490565b7fffffffff000000000000000000000000000000000000000000000000000000008082161415620003ae57600080fd5b7fffffffff00000000000000000000000000000000000000000000000000000000166000908152600660205260409020805460ff19166001179055565b828054600181600116156101000203166002900490600052602060002090601f016020900481019282601f106200042e57805160ff19168380011785556200045e565b828001600101855582156200045e579182015b828111156200045e57825182559160200191906001019062000441565b506200046c92915062000470565b5090565b6200048d91905b808211156200046c576000815560010162000477565b90565b61264e80620004a06000396000f3fe6080604052600436106102465760003560e01c806377d32e9411610139578063b88d4fde116100b6578063e614d0d61161007a578063e614d0d614610afe578063e985e9c514610b13578063ed9ef52414610b4e578063f2fde38b14610b81578063f4ef4d6914610bb4578063fc0c546a14610bc957610246565b8063b88d4fde146109a6578063c87b56dd14610a77578063cc79f97b14610aa1578063df55500714610ab6578063e306f77914610ae957610246565b806395d89b41116100fd57806395d89b41146108d2578063a22cb465146108e7578063abceeba214610922578063acd06cb314610937578063b789543c1461096157610246565b806377d32e94146107005780638da5cb5b146107b85780638f32d59b146107cd5780639025e64c146107e257806390657147146107f757610246565b80632f745c59116101c757806355651f711161018b57806355651f711461066457806360f96a8f146106795780636352211e1461068e57806370a08231146106b8578063715018a6146106eb57610246565b80632f745c591461057057806342842e0e146105a957806342fc47fb146105ec57806347e7ef24146106015780634f6ccce71461063a57610246565b806318160ddd1161020e57806318160ddd146103d157806319d27d9c146103f857806323b872dd1461048e57806326c53bea146104d15780632e1a7d4d1461055357610246565b806301ffc9a71461024b57806306fdde0314610293578063081812fc1461031d578063095ea7b3146103635780631499c5921461039e575b600080fd5b34801561025757600080fd5b5061027f6004803603602081101561026e57600080fd5b50356001600160e01b031916610bde565b604080519115158252519081900360200190f35b34801561029f57600080fd5b506102a8610bfd565b6040805160208082528351818301528351919283929083019185019080838360005b838110156102e25781810151838201526020016102ca565b50505050905090810190601f16801561030f5780820380516001836020036101000a031916815260200191505b509250505060405180910390f35b34801561032957600080fd5b506103476004803603602081101561034057600080fd5b5035610c8b565b604080516001600160a01b039092168252519081900360200190f35b34801561036f57600080fd5b5061039c6004803603604081101561038657600080fd5b506001600160a01b038135169060200135610ccd565b005b3480156103aa57600080fd5b5061039c600480360360208110156103c157600080fd5b50356001600160a01b0316610d0d565b3480156103dd57600080fd5b506103e6610dbf565b60408051918252519081900360200190f35b34801561040457600080fd5b50610347600480360360a081101561041b57600080fd5b810190602081018135600160201b81111561043557600080fd5b82018360208201111561044757600080fd5b803590602001918460018302840111600160201b8311171561046857600080fd5b9193509150803590602081013590604081013590606001356001600160a01b0316610dc6565b34801561049a57600080fd5b5061039c600480360360608110156104b157600080fd5b506001600160a01b03813581169160208101359091169060400135610f6a565b3480156104dd57600080fd5b5061039c600480360360408110156104f457600080fd5b81359190810190604081016020820135600160201b81111561051557600080fd5b82018360208201111561052757600080fd5b803590602001918460018302840111600160201b8311171561054857600080fd5b509092509050611024565b61039c6004803603602081101561056957600080fd5b50356110e4565b34801561057c57600080fd5b506103e66004803603604081101561059357600080fd5b506001600160a01b038135169060200135611151565b3480156105b557600080fd5b5061039c600480360360608110156105cc57600080fd5b506001600160a01b0381358116916020810135909116906040013561119f565b3480156105f857600080fd5b506103476111ba565b34801561060d57600080fd5b5061039c6004803603604081101561062457600080fd5b506001600160a01b0381351690602001356111c9565b34801561064657600080fd5b506103e66004803603602081101561065d57600080fd5b5035611278565b34801561067057600080fd5b5061027f6112ac565b34801561068557600080fd5b506103476112bd565b34801561069a57600080fd5b50610347600480360360208110156106b157600080fd5b50356112cc565b3480156106c457600080fd5b506103e6600480360360208110156106db57600080fd5b50356001600160a01b03166112ee565b3480156106f757600080fd5b5061039c611324565b34801561070c57600080fd5b506103476004803603604081101561072357600080fd5b81359190810190604081016020820135600160201b81111561074457600080fd5b82018360208201111561075657600080fd5b803590602001918460018302840111600160201b8311171561077757600080fd5b91908080601f01602080910402602001604051908101604052809392919081815260200183838082843760009201919091525092955061137f945050505050565b3480156107c457600080fd5b506103476114a2565b3480156107d957600080fd5b5061027f6114b1565b3480156107ee57600080fd5b506102a86114f4565b34801561080357600080fd5b5061039c6004803603606081101561081a57600080fd5b6001600160a01b038235169190810190604081016020820135600160201b81111561084457600080fd5b82018360208201111561085657600080fd5b803590602001918460018302840111600160201b8311171561087757600080fd5b919390929091602081019035600160201b81111561089457600080fd5b8201836020820111156108a657600080fd5b803590602001918460018302840111600160201b831117156108c757600080fd5b509092509050611512565b3480156108de57600080fd5b506102a86115c4565b3480156108f357600080fd5b5061039c6004803603604081101561090a57600080fd5b506001600160a01b0381351690602001351515610ccd565b34801561092e57600080fd5b506103e661161f565b34801561094357600080fd5b5061027f6004803603602081101561095a57600080fd5b50356116a8565b34801561096d57600080fd5b506103e66004803603608081101561098457600080fd5b506001600160a01b0381351690602081013590604081013590606001356116bd565b3480156109b257600080fd5b5061039c600480360360808110156109c957600080fd5b6001600160a01b03823581169260208101359091169160408201359190810190608081016060820135600160201b811115610a0357600080fd5b820183602082011115610a1557600080fd5b803590602001918460018302840111600160201b83111715610a3657600080fd5b91908080601f0160208091040260200160405190810160405280939291908181526020018383808284376000920191909152509295506116dc945050505050565b348015610a8357600080fd5b506102a860048036036020811015610a9a57600080fd5b5035611702565b348015610aad57600080fd5b506103e66117b5565b348015610ac257600080fd5b5061039c60048036036020811015610ad957600080fd5b50356001600160a01b03166117bb565b348015610af557600080fd5b506103e661186d565b348015610b0a57600080fd5b506103e6611873565b348015610b1f57600080fd5b5061027f60048036036040811015610b3657600080fd5b506001600160a01b0381358116916020013516610c8b565b348015610b5a57600080fd5b5061039c60048036036020811015610b7157600080fd5b50356001600160a01b03166118bd565b348015610b8d57600080fd5b5061039c60048036036020811015610ba457600080fd5b50356001600160a01b031661196f565b348015610bc057600080fd5b5061034761198c565b348015610bd557600080fd5b5061034761199b565b6001600160e01b03191660009081526006602052604090205460ff1690565b6013805460408051602060026001851615610100026000190190941693909304601f81018490048402820184019092528181529291830182828015610c835780601f10610c5857610100808354040283529160200191610c83565b820191906000526020600020905b815481529060010190602001808311610c6657829003601f168201915b505050505081565b6040805162461bcd60e51b815260206004820152601060248201526f44697361626c6564206665617475726560801b6044820152905160009181900360640190fd5b6040805162461bcd60e51b815260206004820152601060248201526f44697361626c6564206665617475726560801b604482015290519081900360640190fd5b610d156114b1565b610d1e57600080fd5b6001600160a01b038116610d635760405162461bcd60e51b81526004018080602001828103825260338152602001806124666033913960400191505060405180910390fd5b6004546040516001600160a01b038084169216907fc9e4c719f349d4c91a37138eb5cf0ba2670c592a764f8c0b18c603ba9178cc1d90600090a3600480546001600160a01b0319166001600160a01b0392909216919091179055565b600d545b90565b6000821580610dd55750824311155b610e1d576040805162461bcd60e51b815260206004820152601460248201527314da59db985d1d5c99481a5cc8195e1c1a5c995960621b604482015290519081900360640190fd5b6000610e34610e2e338888886119aa565b30611a66565b60008181526005602052604090205490915060ff1615610e8d576040805162461bcd60e51b815260206004820152600f60248201526e14da59c819195858dd1a5d985d1959608a1b604482015290519081900360640190fd5b6000818152600560209081526040808320805460ff191660011790558051601f8b01839004830281018301909152898152610ee5918491908c908c908190840183828082843760009201919091525061137f92505050565b9050610ef2818589611bbb565b610f0d81858960405180602001604052806000815250611c14565b610f5e576040805162461bcd60e51b815260206004820152601d60248201527f5f636865636b4f6e4552433732315265636569766564206661696c6564000000604482015290519081900360640190fd5b98975050505050505050565b6004546001600160a01b03161580159061100a57506004805460408051631ffb811f60e01b815233938101939093526001600160a01b038581166024850152604484018590529051911691631ffb811f9160648083019260209291908290030181600087803b158015610fdc57600080fd5b505af1158015610ff0573d6000803e3d6000fd5b505050506040513d602081101561100657600080fd5b5051155b156110145761101f565b61101f838383611bbb565b505050565b61102c6112ac565b6110675760405162461bcd60e51b81526004018080602001828103825260358152602001806124eb6035913960400191505060405180910390fd5b6000808383604081101561107a57600080fd5b506001600160a01b0381351692506020013590506110988282611d47565b6002546040805183815290516001600160a01b038086169316917f9b1bfa7fa9ee420a16e124f794c35ac9f90472acc99140eb2f6447c714cad8eb919081900360200190a35050505050565b336110ee826112cc565b6001600160a01b03161461110157600080fd5b61110b3382611d47565b60025460408051838152905133926001600160a01b0316917f9b1bfa7fa9ee420a16e124f794c35ac9f90472acc99140eb2f6447c714cad8eb919081900360200190a350565b600061115c836112ee565b821061116757600080fd5b6001600160a01b0383166000908152600b6020526040902080548390811061118b57fe5b906000526020600020015490505b92915050565b61101f838383604051806020016040528060008152506116dc565b6003546001600160a01b031681565b6003546001600160a01b031633146112125760405162461bcd60e51b81526004018080602001828103825260338152602001806125ad6033913960400191505060405180910390fd5b6001600160a01b03821661122557600080fd5b61122f8282611d93565b6002546040805183815290516001600160a01b038086169316917f5548c837ab068cf56a2c2479df0882a4922fd203edb7517321831d95078c5f62919081900360200190a35050565b6000611282610dbf565b821061128d57600080fd5b600d828154811061129a57fe5b90600052602060002001549050919050565b6012546001600160a01b0316331490565b6004546001600160a01b031681565b6000818152600760205260408120546001600160a01b03168061119957600080fd5b60006001600160a01b03821661130357600080fd5b6001600160a01b038216600090815260096020526040902061119990611db0565b61132c6114b1565b61133557600080fd5b600080546040516001600160a01b03909116907f8be0079c531659141344cd1fd0a4f28419497f9722a3daafe3b4186f6b6457e0908390a3600080546001600160a01b0319169055565b600080600080845160411461139a5760009350505050611199565b50505060208201516040830151604184015160ff16601b8110156113bc57601b015b8060ff16601b141580156113d457508060ff16601c14155b156113e55760009350505050611199565b6040805160008152602080820180845289905260ff8416828401526060820186905260808201859052915160019260a0808401939192601f1981019281900390910190855afa15801561143c573d6000803e3d6000fd5b5050604051601f1901519450506001600160a01b038416611499576040805162461bcd60e51b815260206004820152601260248201527122b93937b91034b71032b1b932b1b7bb32b960711b604482015290519081900360640190fd5b50505092915050565b6000546001600160a01b031690565b604080517f6d617469632e6e6574776f726b2e70726f78792e6f776e6572000000000000008152905190819003601901902054336001600160a01b039091161490565b604051806040016040528060028152602001613a9960f01b81525081565b601254600160a01b900460ff1615611562576040805162461bcd60e51b815260206004820152600e60248201526d185b1c9958591e481a5b9a5d195960921b604482015290519081900360640190fd5b6012805460ff60a01b1916600160a01b1790556001600160a01b03851661158857600080fd5b600280546001600160a01b0319166001600160a01b0387161790556115af60138585612369565b506115bc60148383612369565b505050505050565b6014805460408051602060026001851615610100026000190190941693909304601f81018490048402820184019092528181529291830182828015610c835780601f10610c5857610100808354040283529160200191610c83565b6040518060800160405280605b8152602001612552605b91396040516020018082805190602001908083835b6020831061166a5780518252601f19909201916020918201910161164b565b6001836020036101000a0380198251168184511680821785525050505050509050019150506040516020818303038152906040528051906020012081565b60056020526000908152604090205460ff1681565b60006116d36116ce868686866119aa565b611db4565b95945050505050565b6116e7848484610f6a565b6116f384848484611c14565b6116fc57600080fd5b50505050565b606061170d82611dc2565b61171657600080fd5b60008281526011602090815260409182902080548351601f6002600019610100600186161502019093169290920491820184900484028101840190945280845290918301828280156117a95780601f1061177e576101008083540402835291602001916117a9565b820191906000526020600020905b81548152906001019060200180831161178c57829003601f168201915b50505050509050919050565b613a9981565b6117c36114b1565b6117cc57600080fd5b6001600160a01b0381166118115760405162461bcd60e51b815260040180806020018281038252603a8152602001806125e0603a913960400191505060405180910390fd5b6012546040516001600160a01b038084169216907f98e6a46aa139a033b9c7f3ae4ad1c103ffdce3e7cf509326808ba8c4b5af11c090600090a3601280546001600160a01b0319166001600160a01b0392909216919091179055565b60015481565b604051806080016040528060528152602001612499605291396040516020018082805190602001908083836020831061166a5780518252601f19909201916020918201910161164b565b6118c56114b1565b6118ce57600080fd5b6001600160a01b0381166119135760405162461bcd60e51b81526004018080602001828103825260328152602001806125206032913960400191505060405180910390fd5b6003546040516001600160a01b038084169216907f1f9f3556dd336016cdf20adaead7d5c73665dba664b60e8c17e9a4eb91ce1d3990600090a3600380546001600160a01b0319166001600160a01b0392909216919091179055565b6119776114b1565b61198057600080fd5b61198981611ddf565b50565b6012546001600160a01b031681565b6002546001600160a01b031681565b6000806040518060800160405280605b8152602001612552605b91396040516020018082805190602001908083835b602083106119f85780518252601f1990920191602091820191016119d9565b51815160209384036101000a60001901801990921691161790526040805192909401828103601f1901835280855282519282019290922082526001600160a01b038c169082015291820189905250606081018790526080810186905260a0902093505050505b949350505050565b600080604051806080016040528060528152602001612499605291396040516020018082805190602001908083835b60208310611ab45780518252601f199092019160209182019101611a95565b51815160209384036101000a60001901801990921691161790526040805192909401828103601f190183528085528251928201929092208285018552600d83526c4d61746963204e6574776f726b60981b928201929092528351808501855260018152603160f81b908201528351808201929092527fd26430275d0d30693378daeb558f6ed30c3a48ba5d665f52c16608e1c41b5cd7828501527fc89efdaa54c0f20c7adf612882df0950f5a951637e0307cdcb4c672f298b8bc66060830152613a9960808301526001600160a01b03891660a0808401919091528451808403909101815260c090920190935280519201919091209350611a5e9250869150839050611e4d565b611bc6838383611e6f565b6002546040805183815290516001600160a01b0380861693878216939116917f6eabe333476233fd382224f233210cb808a7bc4c4de64f9d76628bf63c677b1a9181900360200190a4505050565b6000611c28846001600160a01b0316611e8e565b611c3457506001611a5e565b604051630a85bd0160e11b815233600482018181526001600160a01b03888116602485015260448401879052608060648501908152865160848601528651600095928a169463150b7a029490938c938b938b939260a4019060208501908083838e5b83811015611cae578181015183820152602001611c96565b50505050905090810190601f168015611cdb5780820380516001836020036101000a031916815260200191505b5095505050505050602060405180830381600087803b158015611cfd57600080fd5b505af1158015611d11573d6000803e3d6000fd5b505050506040513d6020811015611d2757600080fd5b50516001600160e01b031916630a85bd0160e11b14915050949350505050565b611d518282611e94565b6000818152601160205260409020546002600019610100600184161502019091160415611d8f576000818152601160205260408120611d8f916123e7565b5050565b611d9d8282611ec0565b611da78282611f61565b611d8f81611f9f565b5490565b600061119982600154611e4d565b6000908152600760205260409020546001600160a01b0316151590565b6001600160a01b038116611df257600080fd5b600080546040516001600160a01b03808516939216917f8be0079c531659141344cd1fd0a4f28419497f9722a3daafe3b4186f6b6457e091a3600080546001600160a01b0319166001600160a01b0392909216919091179055565b60405161190160f01b8152600281019190915260228101919091526042902090565b611e7a838383611fe3565b611e8483826120c3565b61101f8282611f61565b3b151590565b611e9e82826121b8565b611ea882826120c3565b6000818152600c6020526040812055611d8f8161225d565b6001600160a01b038216611ed357600080fd5b611edc81611dc2565b15611ee657600080fd5b600081815260076020908152604080832080546001600160a01b0319166001600160a01b038716908117909155835260099091529020611f25906122f9565b60405181906001600160a01b038416906000907fddf252ad1be2c89b69c2b068fc378daa952ba7f163c4a11628f55a4df523b3ef908290a45050565b6001600160a01b039091166000908152600b602081815260408084208054868652600c84529185208290559282526001810183559183529091200155565b600d80546000838152600e60205260408120829055600182018355919091527fd7b6990105719101dabeb77144f2a3385c8033acd3af97e9423a695e81ad1eb50155565b826001600160a01b0316611ff6826112cc565b6001600160a01b03161461200957600080fd5b6001600160a01b03821661201c57600080fd5b61202581612302565b6001600160a01b03831660009081526009602052604090206120469061233d565b6001600160a01b0382166000908152600960205260409020612067906122f9565b60008181526007602052604080822080546001600160a01b0319166001600160a01b0386811691821790925591518493918716917fddf252ad1be2c89b69c2b068fc378daa952ba7f163c4a11628f55a4df523b3ef91a4505050565b6001600160a01b0382166000908152600b60205260408120546120ed90600163ffffffff61235416565b6000838152600c6020526040902054909150808214612188576001600160a01b0384166000908152600b6020526040812080548490811061212a57fe5b9060005260206000200154905080600b6000876001600160a01b03166001600160a01b03168152602001908152602001600020838154811061216857fe5b6000918252602080832090910192909255918252600c9052604090208190555b6001600160a01b0384166000908152600b602052604090208054906121b190600019830161242b565b5050505050565b816001600160a01b03166121cb826112cc565b6001600160a01b0316146121de57600080fd5b6121e781612302565b6001600160a01b03821660009081526009602052604090206122089061233d565b60008181526007602052604080822080546001600160a01b0319169055518291906001600160a01b038516907fddf252ad1be2c89b69c2b068fc378daa952ba7f163c4a11628f55a4df523b3ef908390a45050565b600d5460009061227490600163ffffffff61235416565b6000838152600e6020526040812054600d805493945090928490811061229657fe5b9060005260206000200154905080600d83815481106122b157fe5b6000918252602080832090910192909255828152600e90915260409020829055600d8054906122e490600019830161242b565b505050600091825250600e6020526040812055565b80546001019055565b6000818152600860205260409020546001600160a01b03161561198957600090815260086020526040902080546001600160a01b0319169055565b805461235090600163ffffffff61235416565b9055565b60008282111561236357600080fd5b50900390565b828054600181600116156101000203166002900490600052602060002090601f016020900481019282601f106123aa5782800160ff198235161785556123d7565b828001600101855582156123d7579182015b828111156123d75782358255916020019190600101906123bc565b506123e392915061244b565b5090565b50805460018160011615610100020316600290046000825580601f1061240d5750611989565b601f016020900490600052602060002090810190611989919061244b565b81548183558181111561101f5760008381526020902061101f9181019083015b610dc391905b808211156123e3576000815560010161245156fe4368696c6420746f6b656e3a206e657720706172656e74206164647265737320697320746865207a65726f2061646472657373454950373132446f6d61696e28737472696e67206e616d652c737472696e672076657273696f6e2c75696e7432353620636861696e49642c6164647265737320766572696679696e67436f6e74726163742953746174652073796e6365723a2063616c6c6572206973206e6f74207468652073746174652073796e63657220636f6e74726163744368696c6420746f6b656e3a206e6577206368696c64206164647265737320697320746865207a65726f2061646472657373546f6b656e5472616e736665724f726465722861646472657373207370656e6465722c75696e7432353620746f6b656e49644f72416d6f756e742c6279746573333220646174612c75696e743235362065787069726174696f6e294368696c6420746f6b656e3a2063616c6c6572206973206e6f7420746865206368696c6420636861696e20636f6e747261637453746174652073796e6365723a206e65772073746174652073796e636572206164647265737320697320746865207a65726f2061646472657373a265627a7a72315820a81d9de0bb01a09913988c4987f8fe319b4cff8f82db037dc45d5b439cd4cce364736f6c63430005110032454950373132446f6d61696e28737472696e67206e616d652c737472696e672076657273696f6e2c75696e7432353620636861696e49642c6164647265737320766572696679696e67436f6e747261637429",
  "source": "pragma solidity ^0.5.2;\n\nimport {Initializable} from \"../../common/mixin/Initializable.sol\";\nimport \"../ChildERC721.sol\";\n\ncontract ChildERC721Proxified is ChildERC721, Initializable {\n    string public name;\n    string public symbol;\n\n    constructor() public ChildERC721(address(0x1), address(0x1), \"\", \"\") {}\n\n    function initialize(\n        address _token,\n        string calldata _name,\n        string calldata _symbol\n    ) external initializer {\n        require(_token != address(0x0));\n        token = _token;\n        name = _name;\n        symbol = _symbol;\n    }\n\n    // Overriding isOwner from Ownable.sol because owner() and transferOwnership() have been overridden by UpgradableProxy\n    function isOwner() public view returns (bool) {\n        address _owner;\n        bytes32 position = keccak256(\"matic.network.proxy.owner\");\n        assembly {\n            _owner := sload(position)\n        }\n        return msg.sender == _owner;\n    }\n}\n",
  "sourcePath": "/Users/tavakayn/Projects/telcoin/telcoin/docker/polygon/code/contracts/contracts/child/proxifiedChildToken/ChildERC721Proxified.sol",
  "compiler": {
    "name": "solc",
    "version": "0.5.17+commit.d19bba13.Linux.g++"
  },
  "schemaVersion": "3.0.14",
  "updatedAt": "2021-07-26T16:29:41.814Z",
  "devdoc": {
    "methods": {
      "balanceOf(address)": {
        "details": "Gets the balance of the specified address",
        "params": {
          "owner": "address to query the balance of"
        },
        "return": "uint256 representing the amount owned by the passed address"
      },
      "deposit(address,uint256)": {
        "params": {
          "tokenId": "tokenId to mint to user's account",
          "user": "address for deposit"
        }
      },
      "isOnlyStateSyncerContract()": {
        "details": "Returns true if the caller is the state syncer contract TODO: replace onlyOwner ownership with 0x1000 for validator majority"
      },
      "owner()": {
        "return": "the address of the owner."
      },
      "ownerOf(uint256)": {
        "details": "Gets the owner of the specified token ID",
        "params": {
          "tokenId": "uint256 ID of the token to query the owner of"
        },
        "return": "address currently marked as the owner of the given token ID"
      },
      "renounceOwnership()": {
        "details": "Allows the current owner to relinquish control of the contract. It will not be possible to call the functions with the `onlyOwner` modifier anymore."
      },
      "safeTransferFrom(address,address,uint256)": {
        "details": "Safely transfers the ownership of a given token ID to another address If the target address is a contract, it must implement `onERC721Received`, which is called upon a safe transfer, and return the magic value `bytes4(keccak256(\"onERC721Received(address,address,uint256,bytes)\"))`; otherwise, the transfer is reverted. Requires the msg.sender to be the owner, approved, or operator",
        "params": {
          "from": "current owner of the token",
          "to": "address to receive the ownership of the given token ID",
          "tokenId": "uint256 ID of the token to be transferred"
        }
      },
      "safeTransferFrom(address,address,uint256,bytes)": {
        "details": "Safely transfers the ownership of a given token ID to another address If the target address is a contract, it must implement `onERC721Received`, which is called upon a safe transfer, and return the magic value `bytes4(keccak256(\"onERC721Received(address,address,uint256,bytes)\"))`; otherwise, the transfer is reverted. Requires the msg.sender to be the owner, approved, or operator",
        "params": {
          "_data": "bytes data to send along with a safe transfer check",
          "from": "current owner of the token",
          "to": "address to receive the ownership of the given token ID",
          "tokenId": "uint256 ID of the token to be transferred"
        }
      },
      "supportsInterface(bytes4)": {
        "details": "implement supportsInterface(bytes4) using a lookup table"
      },
      "tokenByIndex(uint256)": {
        "details": "Gets the token ID at a given index of all the tokens in this contract Reverts if the index is greater or equal to the total number of tokens",
        "params": {
          "index": "uint256 representing the index to be accessed of the tokens list"
        },
        "return": "uint256 token ID at the given index of the tokens list"
      },
      "tokenOfOwnerByIndex(address,uint256)": {
        "details": "Gets the token ID at a given index of the tokens list of the requested owner",
        "params": {
          "index": "uint256 representing the index to be accessed of the requested tokens list",
          "owner": "address owning the tokens list to be accessed"
        },
        "return": "uint256 token ID at the given index of the tokens list owned by the requested address"
      },
      "tokenURI(uint256)": {
        "details": "Returns an URI for a given token ID Throws if the token ID does not exist. May return an empty string.",
        "params": {
          "tokenId": "uint256 ID of the token to query"
        }
      },
      "totalSupply()": {
        "details": "Gets the total amount of tokens stored by the contract",
        "return": "uint256 representing the total amount of tokens"
      },
      "transferFrom(address,address,uint256)": {
        "details": "Overriding the inherited method so that it emits LogTransfer"
      },
      "transferOwnership(address)": {
        "details": "Allows the current owner to transfer control of the contract to a newOwner.",
        "params": {
          "newOwner": "The address to transfer ownership to."
        }
      },
      "withdraw(uint256)": {
        "params": {
          "tokenId": "tokenId of the token to be withdrawn"
        }
      }
    }
  },
  "userdoc": {
    "methods": {
      "deposit(address,uint256)": {
        "notice": "Deposit tokens"
      },
      "renounceOwnership()": {
        "notice": "Renouncing ownership will leave the contract without an owner, thereby removing any functionality that is only available to the owner."
      },
      "withdraw(uint256)": {
        "notice": "Withdraw tokens"
      }
    }
  }
}