{
  "contractName": "Drainable",
  "abi": [
    {
      "inputs": [],
      "payable": false,
      "stateMutability": "nonpayable",
      "type": "constructor"
    },
    {
      "anonymous": false,
      "inputs": [
        {
          "indexed": true,
          "internalType": "uint256",
          "name": "oldLimit",
          "type": "uint256"
        },
        {
          "indexed": true,
          "internalType": "uint256",
          "name": "newLimit",
          "type": "uint256"
        }
      ],
      "name": "MaxErc20DepositUpdate",
      "type": "event"
    },
    {
      "anonymous": false,
      "inputs": [
        {
          "indexed": true,
          "internalType": "address",
          "name": "owner",
          "type": "address"
        },
        {
          "indexed": true,
          "internalType": "address",
          "name": "token",
          "type": "address"
        },
        {
          "indexed": false,
          "internalType": "uint256",
          "name": "amountOrNFTId",
          "type": "uint256"
        },
        {
          "indexed": false,
          "internalType": "uint256",
          "name": "depositBlockId",
          "type": "uint256"
        }
      ],
      "name": "NewDepositBlock",
      "type": "event"
    },
    {
      "anonymous": false,
      "inputs": [
        {
          "indexed": true,
          "internalType": "address",
          "name": "previousOwner",
          "type": "address"
        },
        {
          "indexed": true,
          "internalType": "address",
          "name": "newOwner",
          "type": "address"
        }
      ],
      "name": "OwnershipTransferred",
      "type": "event"
    },
    {
      "constant": true,
      "inputs": [],
      "name": "childChain",
      "outputs": [
        {
          "internalType": "address",
          "name": "",
          "type": "address"
        }
      ],
      "payable": false,
      "stateMutability": "view",
      "type": "function"
    },
    {
      "constant": true,
      "inputs": [
        {
          "internalType": "uint256",
          "name": "",
          "type": "uint256"
        }
      ],
      "name": "deposits",
      "outputs": [
        {
          "internalType": "bytes32",
          "name": "depositHash",
          "type": "bytes32"
        },
        {
          "internalType": "uint256",
          "name": "createdAt",
          "type": "uint256"
        }
      ],
      "payable": false,
      "stateMutability": "view",
      "type": "function"
    },
    {
      "constant": true,
      "inputs": [],
      "name": "governance",
      "outputs": [
        {
          "internalType": "contract IGovernance",
          "name": "",
          "type": "address"
        }
      ],
      "payable": false,
      "stateMutability": "view",
      "type": "function"
    },
    {
      "constant": true,
      "inputs": [],
      "name": "isOwner",
      "outputs": [
        {
          "internalType": "bool",
          "name": "",
          "type": "bool"
        }
      ],
      "payable": false,
      "stateMutability": "view",
      "type": "function"
    },
    {
      "constant": false,
      "inputs": [],
      "name": "lock",
      "outputs": [],
      "payable": false,
      "stateMutability": "nonpayable",
      "type": "function"
    },
    {
      "constant": true,
      "inputs": [],
      "name": "locked",
      "outputs": [
        {
          "internalType": "bool",
          "name": "",
          "type": "bool"
        }
      ],
      "payable": false,
      "stateMutability": "view",
      "type": "function"
    },
    {
      "constant": true,
      "inputs": [],
      "name": "maxErc20Deposit",
      "outputs": [
        {
          "internalType": "uint256",
          "name": "",
          "type": "uint256"
        }
      ],
      "payable": false,
      "stateMutability": "view",
      "type": "function"
    },
    {
      "constant": true,
      "inputs": [],
      "name": "owner",
      "outputs": [
        {
          "internalType": "address",
          "name": "",
          "type": "address"
        }
      ],
      "payable": false,
      "stateMutability": "view",
      "type": "function"
    },
    {
      "constant": true,
      "inputs": [],
      "name": "registry",
      "outputs": [
        {
          "internalType": "contract Registry",
          "name": "",
          "type": "address"
        }
      ],
      "payable": false,
      "stateMutability": "view",
      "type": "function"
    },
    {
      "constant": false,
      "inputs": [],
      "name": "renounceOwnership",
      "outputs": [],
      "payable": false,
      "stateMutability": "nonpayable",
      "type": "function"
    },
    {
      "constant": true,
      "inputs": [],
      "name": "rootChain",
      "outputs": [
        {
          "internalType": "contract RootChain",
          "name": "",
          "type": "address"
        }
      ],
      "payable": false,
      "stateMutability": "view",
      "type": "function"
    },
    {
      "constant": true,
      "inputs": [],
      "name": "stateSender",
      "outputs": [
        {
          "internalType": "contract StateSender",
          "name": "",
          "type": "address"
        }
      ],
      "payable": false,
      "stateMutability": "view",
      "type": "function"
    },
    {
      "constant": false,
      "inputs": [
        {
          "internalType": "address",
          "name": "newOwner",
          "type": "address"
        }
      ],
      "name": "transferOwnership",
      "outputs": [],
      "payable": false,
      "stateMutability": "nonpayable",
      "type": "function"
    },
    {
      "constant": false,
      "inputs": [],
      "name": "unlock",
      "outputs": [],
      "payable": false,
      "stateMutability": "nonpayable",
      "type": "function"
    },
    {
      "constant": false,
      "inputs": [
        {
          "internalType": "address[]",
          "name": "tokens",
          "type": "address[]"
        },
        {
          "internalType": "uint256[]",
          "name": "values",
          "type": "uint256[]"
        },
        {
          "internalType": "address",
          "name": "destination",
          "type": "address"
        }
      ],
      "name": "drainErc20",
      "outputs": [],
      "payable": false,
      "stateMutability": "nonpayable",
      "type": "function"
    },
    {
      "constant": false,
      "inputs": [
        {
          "internalType": "address[]",
          "name": "tokens",
          "type": "address[]"
        },
        {
          "internalType": "uint256[]",
          "name": "values",
          "type": "uint256[]"
        },
        {
          "internalType": "address",
          "name": "destination",
          "type": "address"
        }
      ],
      "name": "drainErc721",
      "outputs": [],
      "payable": false,
      "stateMutability": "nonpayable",
      "type": "function"
    },
    {
      "constant": false,
      "inputs": [
        {
          "internalType": "uint256",
          "name": "amount",
          "type": "uint256"
        },
        {
          "internalType": "address payable",
          "name": "destination",
          "type": "address"
        }
      ],
      "name": "drainEther",
      "outputs": [],
      "payable": false,
      "stateMutability": "nonpayable",
      "type": "function"
    }
  ],
  "bytecode": "0x608060405268056bc75e2d6310000060085534801561001d57600080fd5b50600080546001600160a01b031916331780825560405182916001600160a01b03169082907f8be0079c531659141344cd1fd0a4f28419497f9722a3daafe3b4186f6b6457e0908290a3600280546001600160a01b0319166001600160a01b0392909216919091179055506109a5806100976000396000f3fe608060405234801561001057600080fd5b506004361061010b5760003560e01c8063987ab9db116100a2578063cb10f94c11610071578063cb10f94c14610372578063cf3090121461037a578063e7af7ba114610382578063f2fde38b1461039c578063f83d08ba146103c25761010b565b8063987ab9db14610300578063a69df4b514610308578063ad22b1d114610310578063b02c43d01461033c5761010b565b80637a2ca379116100de5780637a2ca3791461020d5780637b103999146102d45780638da5cb5b146102dc5780638f32d59b146102e45761010b565b806342fc47fb14610110578063523f3088146101345780635aa6e675146101fd578063715018a614610205575b600080fd5b6101186103ca565b604080516001600160a01b039092168252519081900360200190f35b6101fb6004803603606081101561014a57600080fd5b810190602081018135600160201b81111561016457600080fd5b82018360208201111561017657600080fd5b803590602001918460208302840111600160201b8311171561019757600080fd5b919390929091602081019035600160201b8111156101b457600080fd5b8201836020820111156101c657600080fd5b803590602001918460208302840111600160201b831117156101e757600080fd5b9193509150356001600160a01b03166103d9565b005b61011861053c565b6101fb61054b565b6101fb6004803603606081101561022357600080fd5b810190602081018135600160201b81111561023d57600080fd5b82018360208201111561024f57600080fd5b803590602001918460208302840111600160201b8311171561027057600080fd5b919390929091602081019035600160201b81111561028d57600080fd5b82018360208201111561029f57600080fd5b803590602001918460208302840111600160201b831117156102c057600080fd5b9193509150356001600160a01b03166105a6565b6101186106c8565b6101186106d7565b6102ec6106e6565b604080519115158252519081900360200190f35b6101186106f7565b6101fb610706565b6101fb6004803603604081101561032657600080fd5b50803590602001356001600160a01b0316610718565b6103596004803603602081101561035257600080fd5b5035610804565b6040805192835260208301919091528051918290030190f35b61011861081d565b6102ec61082c565b61038a61083c565b60408051918252519081900360200190f35b6101fb600480360360208110156103b257600080fd5b50356001600160a01b0316610842565b6101fb61085f565b6007546001600160a01b031681565b6103e161086f565b838214610425576040805162461bcd60e51b815260206004820152600d60248201526c1a5b9d985b1a59081a5b9c1d5d609a1b604482015290519081900360640190fd5b60005b848110156105345785858281811061043c57fe5b905060200201356001600160a01b03166001600160a01b031663a9059cbb8386868581811061046757fe5b905060200201356040518363ffffffff1660e01b815260040180836001600160a01b03166001600160a01b0316815260200182815260200192505050602060405180830381600087803b1580156104bd57600080fd5b505af11580156104d1573d6000803e3d6000fd5b505050506040513d60208110156104e757600080fd5b505161052c576040805162461bcd60e51b815260206004820152600f60248201526e151c985b9cd9995c8819985a5b1959608a1b604482015290519081900360640190fd5b600101610428565b505050505050565b6002546001600160a01b031681565b6105536106e6565b61055c57600080fd5b600080546040516001600160a01b03909116907f8be0079c531659141344cd1fd0a4f28419497f9722a3daafe3b4186f6b6457e0908390a3600080546001600160a01b0319169055565b6105ae61086f565b8382146105f2576040805162461bcd60e51b815260206004820152600d60248201526c1a5b9d985b1a59081a5b9c1d5d609a1b604482015290519081900360640190fd5b60005b848110156105345785858281811061060957fe5b905060200201356001600160a01b03166001600160a01b03166323b872dd308487878681811061063557fe5b905060200201356040518463ffffffff1660e01b815260040180846001600160a01b03166001600160a01b03168152602001836001600160a01b03166001600160a01b031681526020018281526020019350505050600060405180830381600087803b1580156106a457600080fd5b505af11580156106b8573d6000803e3d6000fd5b5050600190920191506105f59050565b6003546001600160a01b031681565b6000546001600160a01b031690565b6000546001600160a01b0316331490565b6004546001600160a01b031681565b61070e61086f565b6107166108b8565b565b61072061086f565b60035460408051638b9c948960e01b815290516000926001600160a01b031691638b9c9489916004808301926020929190829003018186803b15801561076557600080fd5b505afa158015610779573d6000803e3d6000fd5b505050506040513d602081101561078f57600080fd5b505160408051627b8a6760e11b8152600481018690526001600160a01b038581166024830152915192935083929183169162f714ce9160448082019260009290919082900301818387803b1580156107e657600080fd5b505af11580156107fa573d6000803e3d6000fd5b5050505050505050565b6006602052600090815260409020805460019091015482565b6005546001600160a01b031681565b600154600160a01b900460ff1681565b60085481565b61084a6106e6565b61085357600080fd5b61085c816108c7565b50565b61086761086f565b610716610935565b6002546001600160a01b031633146107165760405162461bcd60e51b815260040180806020018281038252602681526020018061094b6026913960400191505060405180910390fd5b6001805460ff60a01b19169055565b6001600160a01b0381166108da57600080fd5b600080546040516001600160a01b03808516939216917f8be0079c531659141344cd1fd0a4f28419497f9722a3daafe3b4186f6b6457e091a3600080546001600160a01b0319166001600160a01b0392909216919091179055565b6001805460ff60a01b1916600160a01b17905556fe4f6e6c7920676f7665726e616e636520636f6e747261637420697320617574686f72697a6564a265627a7a72315820f04ab2dd807725aeada7d8c5993544c460fa74cdcefa02c636501e19835aee9d64736f6c63430005110032",
  "source": "pragma solidity ^0.5.2;\n\nimport { DepositManagerStorage } from \"../../root/depositManager/DepositManagerStorage.sol\";\nimport { GovernanceLockable } from \"../mixin/GovernanceLockable.sol\";\nimport { IERC20 } from \"openzeppelin-solidity/contracts/token/ERC20/IERC20.sol\";\nimport { IERC721 } from \"openzeppelin-solidity/contracts/token/ERC721/IERC721.sol\";\nimport { WETH } from \"../tokens/WETH.sol\";\n\n\ncontract Drainable is DepositManagerStorage {\n\n  constructor() public GovernanceLockable(address(0x0)) {}\n\n  function drainErc20(\n    address[] calldata tokens,\n    uint256[] calldata values,\n    address destination\n  ) external onlyGovernance {\n    require((tokens.length == values.length), \"invalid input\");\n    for (uint256 i = 0; i < tokens.length; i++) {\n      require (\n        IERC20(tokens[i]).transfer(destination, values[i]), \"Transfer failed\"\n      );\n    }\n  }\n\n  function drainErc721(\n    address[] calldata tokens,\n    uint256[] calldata values,\n    address destination\n  ) external onlyGovernance {\n    require((tokens.length == values.length), \"invalid input\");\n    for (uint256 i = 0; i < tokens.length; i ++) {\n      IERC721(tokens[i]).transferFrom(address(this), destination, values[i]);\n    }\n  }\n\n  function drainEther(\n    uint256 amount,\n    address payable destination\n  ) external onlyGovernance {\n    address wethToken = registry.getWethTokenAddress();\n    WETH t = WETH(wethToken);\n    t.withdraw(amount, destination);\n  }\n}\n",
  "sourcePath": "/Users/tavakayn/Projects/telcoin/telcoin/docker/polygon/code/contracts/contracts/common/misc/Drainable.sol",
  "compiler": {
    "name": "solc",
    "version": "0.5.17+commit.d19bba13.Linux.g++"
  },
  "schemaVersion": "3.0.14",
  "updatedAt": "2021-07-26T16:29:42.161Z",
  "devdoc": {
    "methods": {
      "isOwner()": {
        "return": "true if `msg.sender` is the owner of the contract."
      },
      "owner()": {
        "return": "the address of the owner."
      },
      "renounceOwnership()": {
        "details": "Allows the current owner to relinquish control of the contract. It will not be possible to call the functions with the `onlyOwner` modifier anymore."
      },
      "transferOwnership(address)": {
        "details": "Allows the current owner to transfer control of the contract to a newOwner.",
        "params": {
          "newOwner": "The address to transfer ownership to."
        }
      }
    }
  },
  "userdoc": {
    "methods": {
      "renounceOwnership()": {
        "notice": "Renouncing ownership will leave the contract without an owner, thereby removing any functionality that is only available to the owner."
      }
    }
  }
}