{
  "contractName": "ERC20PredicateBurnOnly",
  "abi": [
    {
      "inputs": [
        {
          "internalType": "address",
          "name": "_withdrawManager",
          "type": "address"
        },
        {
          "internalType": "address",
          "name": "_depositManager",
          "type": "address"
        },
        {
          "internalType": "address",
          "name": "_registry",
          "type": "address"
        }
      ],
      "payable": false,
      "stateMutability": "nonpayable",
      "type": "constructor"
    },
    {
      "constant": true,
      "inputs": [],
      "name": "CHAINID",
      "outputs": [
        {
          "internalType": "uint256",
          "name": "",
          "type": "uint256"
        }
      ],
      "payable": false,
      "stateMutability": "view",
      "type": "function"
    },
    {
      "constant": true,
      "inputs": [],
      "name": "networkId",
      "outputs": [
        {
          "internalType": "bytes",
          "name": "",
          "type": "bytes"
        }
      ],
      "payable": false,
      "stateMutability": "view",
      "type": "function"
    },
    {
      "constant": false,
      "inputs": [
        {
          "internalType": "bytes",
          "name": "data",
          "type": "bytes"
        }
      ],
      "name": "onFinalizeExit",
      "outputs": [],
      "payable": false,
      "stateMutability": "nonpayable",
      "type": "function"
    },
    {
      "constant": false,
      "inputs": [
        {
          "internalType": "bytes",
          "name": "data",
          "type": "bytes"
        }
      ],
      "name": "startExitWithBurntTokens",
      "outputs": [],
      "payable": false,
      "stateMutability": "nonpayable",
      "type": "function"
    },
    {
      "constant": false,
      "inputs": [
        {
          "internalType": "bytes",
          "name": "exit",
          "type": "bytes"
        },
        {
          "internalType": "bytes",
          "name": "inputUtxo",
          "type": "bytes"
        },
        {
          "internalType": "bytes",
          "name": "challengeData",
          "type": "bytes"
        }
      ],
      "name": "verifyDeprecation",
      "outputs": [
        {
          "internalType": "bool",
          "name": "",
          "type": "bool"
        }
      ],
      "payable": false,
      "stateMutability": "nonpayable",
      "type": "function"
    },
    {
      "constant": true,
      "inputs": [
        {
          "internalType": "bytes",
          "name": "state",
          "type": "bytes"
        }
      ],
      "name": "interpretStateUpdate",
      "outputs": [
        {
          "internalType": "bytes",
          "name": "",
          "type": "bytes"
        }
      ],
      "payable": false,
      "stateMutability": "view",
      "type": "function"
    }
  ],
  "bytecode": "0x608060405234801561001057600080fd5b50604051610db5380380610db58339818101604052606081101561003357600080fd5b5080516020820151604090920151600080546001600160a01b039384166001600160a01b0319918216179091556001805494841694821694909417909355600280549290911691909216179055610d268061008f6000396000f3fe608060405234801561001057600080fd5b50600436106100625760003560e01c80637bd94e03146100675780637c5264b4146100d757806382e3464c146101455780639025e64c14610228578063cc79f97b14610230578063ec58410c1461024a575b600080fd5b6100d56004803603602081101561007d57600080fd5b810190602081018135600160201b81111561009757600080fd5b8201836020820111156100a957600080fd5b803590602001918460018302840111600160201b831117156100ca57600080fd5b50909250905061036c565b005b6100d5600480360360208110156100ed57600080fd5b810190602081018135600160201b81111561010757600080fd5b82018360208201111561011957600080fd5b803590602001918460018302840111600160201b8311171561013a57600080fd5b50909250905061048a565b6101b36004803603602081101561015b57600080fd5b810190602081018135600160201b81111561017557600080fd5b82018360208201111561018757600080fd5b803590602001918460018302840111600160201b831117156101a857600080fd5b509092509050610853565b6040805160208082528351818301528351919283929083019185019080838360005b838110156101ed5781810151838201526020016101d5565b50505050905090810190601f16801561021a5780820380516001836020036101000a031916815260200191505b509250505060405180910390f35b6101b361085b565b610238610879565b60408051918252519081900360200190f35b6103586004803603606081101561026057600080fd5b810190602081018135600160201b81111561027a57600080fd5b82018360208201111561028c57600080fd5b803590602001918460018302840111600160201b831117156102ad57600080fd5b919390929091602081019035600160201b8111156102ca57600080fd5b8201836020820111156102dc57600080fd5b803590602001918460018302840111600160201b831117156102fd57600080fd5b919390929091602081019035600160201b81111561031a57600080fd5b82018360208201111561032c57600080fd5b803590602001918460018302840111600160201b8311171561034d57600080fd5b50909250905061087f565b604080519115158252519081900360200190f35b6000546001600160a01b031633146103c3576040805162461bcd60e51b815260206004820152601560248201527427a7262cafaba4aa24222920abafa6a0a720a3a2a960591b604482015290519081900360640190fd5b600080600061040785858080601f01602080910402602001604051908101604052809392919081815260200183838082843760009201919091525061088b92505050565b600154604080516349f4cc1760e01b81526001600160a01b03808716600483015280861660248301526044820185905291519599509397509195501692506349f4cc1791606480830192600092919082900301818387803b15801561046b57600080fd5b505af115801561047f573d6000803e3d6000fd5b505050505050505050565b60606104d36104ce84848080601f0160208091040260200160405190810160405280939291908181526020018383808284376000920191909152506108c892505050565b6108ee565b905060606104f4826006815181106104e757fe5b60200260200101516109bf565b905060606105046104ce836108c8565b905060006105258460098151811061051857fe5b6020026020010151610a38565b9050600a811061057c576040805162461bcd60e51b815260206004820152601b60248201527f537570706f7274696e672061206d6178206f66203130206c6f67730000000000604482015290519081900360640190fd5b6000805460405163ad1d806960e01b81526024810183905260448101839052606060048201908152606482018990526001600160a01b039092169163ad1d8069918a918a91869182918190608401868680828437600081840152601f19601f8201169050808301925050509550505050505060206040518083038186803b15801561060657600080fd5b505afa15801561061a573d6000803e3d6000fd5b505050506040513d602081101561063057600080fd5b5051835190915061066490610659908590600390811061064c57fe5b60200260200101516108ee565b838151811061064c57fe5b925060006106858460008151811061067857fe5b6020026020010151610a96565b90506060610699856002815181106104e757fe5b90506106ab8560018151811061064c57fe5b94507febff2602b3f468259e1e99f613fed6691f3a6526effe6ef3e768ba7ae7a36c4f60001b6106e18660008151811061051857fe5b14610733576040805162461bcd60e51b815260206004820152601e60248201527f4e6f742061207769746864726177206576656e74207369676e61747572650000604482015290519081900360640190fd5b60006107458660018151811061051857fe5b90506107578660028151811061051857fe5b6001600160a01b0316336001600160a01b0316146107a65760405162461bcd60e51b8152600401808060200182810382526028815260200180610cca6028913960400191505060405180910390fd5b60006107b3836000610ab6565b600080546040805163d931a86960e01b81523360048201526001600160a01b03898116602483015287811660448301526064820186905260848201859052600160a483018190528b901b60c4830152915194955091169263d931a8699260e48084019391929182900301818387803b15801561082e57600080fd5b505af1158015610842573d6000803e3d6000fd5b505050505050505050505050505050565b606092915050565b604051806040016040528060028152602001613a9960f01b81525081565b613a9981565b60009695505050505050565b6000806000808480602001905160808110156108a657600080fd5b5080516020820151604083015160609093015191989097509195509350915050565b6108d0610caf565b5060408051808201909152815181526020828101908201525b919050565b60606108f982610ad2565b61090257600080fd5b600061090d83610b0c565b905060608160405190808252806020026020018201604052801561094b57816020015b610938610caf565b8152602001906001900390816109305790505b509050600061095d8560200151610b68565b60208601510190506000805b848110156109b45761097a83610bcb565b915060405180604001604052808381526020018481525084828151811061099d57fe5b602090810291909101015291810191600101610969565b509195945050505050565b80516060906109cd57600080fd5b60006109dc8360200151610b68565b83516040805191839003808352601f19601f8201168301602001909152919250606090828015610a13576020820181803883390190505b5090506000816020019050610a2f848760200151018285610c64565b50949350505050565b805160009015801590610a4d57508151602110155b610a5657600080fd5b6000610a658360200151610b68565b83516020808601518301805193945091849003929190831015610a2f57506020919091036101000a90049392505050565b8051600090601514610aa757600080fd5b610ab082610a38565b92915050565b60008160200183511015610ac957600080fd5b50016020015190565b8051600090610ae3575060006108e9565b6020820151805160001a9060c0821015610b02576000925050506108e9565b5060019392505050565b8051600090610b1d575060006108e9565b60008090506000610b318460200151610b68565b602085015185519181019250015b80821015610b5f57610b5082610bcb565b60019093019290910190610b3f565b50909392505050565b8051600090811a6080811015610b825760009150506108e9565b60b8811080610b9d575060c08110801590610b9d575060f881105b15610bac5760019150506108e9565b60c0811015610bc05760b5190190506108e9565b60f5190190506108e9565b80516000908190811a6080811015610be65760019150610c5d565b60b8811015610bfb57607e1981019150610c5d565b60c0811015610c285760b78103600185019450806020036101000a85510460018201810193505050610c5d565b60f8811015610c3d5760be1981019150610c5d565b60f78103600185019450806020036101000a855104600182018101935050505b5092915050565b80610c6e57610caa565b5b60208110610c8e578251825260209283019290910190601f1901610c6f565b8251825160208390036101000a60001901801990921691161782525b505050565b60405180604001604052806000815260200160008152509056fe5769746864726177657220616e64206275726e206578697420747820646f206e6f74206d61746368a265627a7a72315820db53a0fb5685d39bd56251c8c717cf4af365ebdfefcd7acc4cf7c60522b0950064736f6c63430005110032",
  "source": "pragma solidity ^0.5.2;\n\nimport {BytesLib} from \"../../common/lib/BytesLib.sol\";\nimport {Common} from \"../../common/lib/Common.sol\";\nimport {Math} from \"openzeppelin-solidity/contracts/math/Math.sol\";\nimport {RLPEncode} from \"../../common/lib/RLPEncode.sol\";\nimport {RLPReader} from \"solidity-rlp/contracts/RLPReader.sol\";\nimport {SafeMath} from \"openzeppelin-solidity/contracts/math/SafeMath.sol\";\n\nimport {IErcPredicate} from \"./IPredicate.sol\";\nimport {Registry} from \"../../common/Registry.sol\";\nimport {\n    WithdrawManagerHeader\n} from \"../withdrawManager/WithdrawManagerStorage.sol\";\n\ncontract ERC20PredicateBurnOnly is IErcPredicate {\n    using RLPReader for bytes;\n    using RLPReader for RLPReader.RLPItem;\n    using SafeMath for uint256;\n\n    // keccak256('Withdraw(address,address,uint256,uint256,uint256)')\n    bytes32 constant WITHDRAW_EVENT_SIG = 0xebff2602b3f468259e1e99f613fed6691f3a6526effe6ef3e768ba7ae7a36c4f;\n\n    Registry registry;\n\n    constructor(\n        address _withdrawManager,\n        address _depositManager,\n        address _registry\n    ) public IErcPredicate(_withdrawManager, _depositManager) {\n        registry = Registry(_registry);\n    }\n\n    function startExitWithBurntTokens(bytes calldata data) external {\n        RLPReader.RLPItem[] memory referenceTxData = data.toRlpItem().toList();\n        bytes memory receipt = referenceTxData[6].toBytes();\n        RLPReader.RLPItem[] memory inputItems = receipt.toRlpItem().toList();\n        uint256 logIndex = referenceTxData[9].toUint();\n        require(logIndex < MAX_LOGS, \"Supporting a max of 10 logs\");\n        uint256 age = withdrawManager.verifyInclusion(\n            data,\n            0, /* offset */\n            false /* verifyTxInclusion */\n        );\n        inputItems = inputItems[3].toList()[logIndex].toList(); // select log based on given logIndex\n\n        // \"address\" (contract address that emitted the log) field in the receipt\n        address childToken = RLPReader.toAddress(inputItems[0]);\n        bytes memory logData = inputItems[2].toBytes();\n        inputItems = inputItems[1].toList(); // topics\n        // now, inputItems[i] refers to i-th (0-based) topic in the topics array\n        // event Withdraw(address indexed token, address indexed from, uint256 amountOrTokenId, uint256 input1, uint256 output1)\n        require(\n            bytes32(inputItems[0].toUint()) == WITHDRAW_EVENT_SIG,\n            \"Not a withdraw event signature\"\n        );\n        address rootToken = address(RLPReader.toUint(inputItems[1]));\n        require(\n            msg.sender == address(inputItems[2].toUint()), // from\n            \"Withdrawer and burn exit tx do not match\"\n        );\n        uint256 exitAmount = BytesLib.toUint(logData, 0); // amountOrTokenId\n        withdrawManager.addExitToQueue(\n            msg.sender,\n            childToken,\n            rootToken,\n            exitAmount,\n            bytes32(0x0),\n            true, /* isRegularExit */\n            age << 1\n        );\n    }\n\n    function verifyDeprecation(\n        bytes calldata exit,\n        bytes calldata inputUtxo,\n        bytes calldata challengeData\n    ) external returns (bool) {}\n\n    function interpretStateUpdate(bytes calldata state)\n        external\n        view\n        returns (bytes memory) {}\n}\n",
  "sourcePath": "/Users/tavakayn/Projects/telcoin/telcoin/docker/polygon/code/contracts/contracts/root/predicates/ERC20PredicateBurnOnly.sol",
  "compiler": {
    "name": "solc",
    "version": "0.5.17+commit.d19bba13.Linux.g++"
  },
  "schemaVersion": "3.0.14",
  "updatedAt": "2021-07-26T16:29:42.210Z",
  "devdoc": {
    "methods": {}
  },
  "userdoc": {
    "methods": {}
  }
}