{
  "contractName": "ERC721PredicateBurnOnly",
  "abi": [
    {
      "inputs": [
        {
          "internalType": "address",
          "name": "_withdrawManager",
          "type": "address"
        },
        {
          "internalType": "address",
          "name": "_depositManager",
          "type": "address"
        }
      ],
      "payable": false,
      "stateMutability": "nonpayable",
      "type": "constructor"
    },
    {
      "constant": true,
      "inputs": [],
      "name": "CHAINID",
      "outputs": [
        {
          "internalType": "uint256",
          "name": "",
          "type": "uint256"
        }
      ],
      "payable": false,
      "stateMutability": "view",
      "type": "function"
    },
    {
      "constant": true,
      "inputs": [],
      "name": "networkId",
      "outputs": [
        {
          "internalType": "bytes",
          "name": "",
          "type": "bytes"
        }
      ],
      "payable": false,
      "stateMutability": "view",
      "type": "function"
    },
    {
      "constant": false,
      "inputs": [
        {
          "internalType": "bytes",
          "name": "data",
          "type": "bytes"
        }
      ],
      "name": "onFinalizeExit",
      "outputs": [],
      "payable": false,
      "stateMutability": "nonpayable",
      "type": "function"
    },
    {
      "constant": false,
      "inputs": [
        {
          "internalType": "bytes",
          "name": "exit",
          "type": "bytes"
        },
        {
          "internalType": "bytes",
          "name": "inputUtxo",
          "type": "bytes"
        },
        {
          "internalType": "bytes",
          "name": "challengeData",
          "type": "bytes"
        }
      ],
      "name": "verifyDeprecation",
      "outputs": [
        {
          "internalType": "bool",
          "name": "",
          "type": "bool"
        }
      ],
      "payable": false,
      "stateMutability": "nonpayable",
      "type": "function"
    },
    {
      "constant": true,
      "inputs": [
        {
          "internalType": "bytes",
          "name": "state",
          "type": "bytes"
        }
      ],
      "name": "interpretStateUpdate",
      "outputs": [
        {
          "internalType": "bytes",
          "name": "b",
          "type": "bytes"
        }
      ],
      "payable": false,
      "stateMutability": "view",
      "type": "function"
    },
    {
      "constant": false,
      "inputs": [
        {
          "internalType": "bytes",
          "name": "data",
          "type": "bytes"
        }
      ],
      "name": "startExitWithBurntTokens",
      "outputs": [
        {
          "internalType": "bytes",
          "name": "",
          "type": "bytes"
        }
      ],
      "payable": false,
      "stateMutability": "nonpayable",
      "type": "function"
    }
  ],
  "bytecode": "0x608060405234801561001057600080fd5b50604051610e1e380380610e1e8339818101604052604081101561003357600080fd5b508051602090910151600080546001600160a01b039384166001600160a01b03199182161790915560018054939092169216919091179055610da48061007a6000396000f3fe608060405234801561001057600080fd5b50600436106100625760003560e01c80637bd94e03146100675780637c5264b4146100d757806382e3464c146101f05780639025e64c1461025e578063cc79f97b14610266578063ec58410c14610280575b600080fd5b6100d56004803603602081101561007d57600080fd5b810190602081018135600160201b81111561009757600080fd5b8201836020820111156100a957600080fd5b803590602001918460018302840111600160201b831117156100ca57600080fd5b5090925090506103a2565b005b61017b600480360360208110156100ed57600080fd5b810190602081018135600160201b81111561010757600080fd5b82018360208201111561011957600080fd5b803590602001918460018302840111600160201b8311171561013a57600080fd5b91908080601f0160208091040260200160405190810160405280939291908181526020018383808284376000920191909152509295506104c0945050505050565b6040805160208082528351818301528351919283929083019185019080838360005b838110156101b557818101518382015260200161019d565b50505050905090810190601f1680156101e25780820380516001836020036101000a031916815260200191505b509250505060405180910390f35b61017b6004803603602081101561020657600080fd5b810190602081018135600160201b81111561022057600080fd5b82018360208201111561023257600080fd5b803590602001918460018302840111600160201b8311171561025357600080fd5b5090925090506108d2565b61017b6108da565b61026e6108f8565b60408051918252519081900360200190f35b61038e6004803603606081101561029657600080fd5b810190602081018135600160201b8111156102b057600080fd5b8201836020820111156102c257600080fd5b803590602001918460018302840111600160201b831117156102e357600080fd5b919390929091602081019035600160201b81111561030057600080fd5b82018360208201111561031257600080fd5b803590602001918460018302840111600160201b8311171561033357600080fd5b919390929091602081019035600160201b81111561035057600080fd5b82018360208201111561036257600080fd5b803590602001918460018302840111600160201b8311171561038357600080fd5b5090925090506108fe565b604080519115158252519081900360200190f35b6000546001600160a01b031633146103f9576040805162461bcd60e51b815260206004820152601560248201527427a7262cafaba4aa24222920abafa6a0a720a3a2a960591b604482015290519081900360640190fd5b600080600061043d85858080601f01602080910402602001604051908101604052809392919081815260200183838082843760009201919091525061090a92505050565b600154604080516349f4cc1760e01b81526001600160a01b03808716600483015280861660248301526044820185905291519599509397509195501692506349f4cc1791606480830192600092919082900301818387803b1580156104a157600080fd5b505af11580156104b5573d6000803e3d6000fd5b505050505050505050565b6060806104d46104cf84610947565b61096c565b905060606104f5826006815181106104e857fe5b6020026020010151610a3d565b905060606105056104cf83610947565b6000805460405163ad1d806960e01b8152602481018390526044810183905260606004820190815289516064830152895194955092936001600160a01b039092169263ad1d8069928a9286928392909182916084909101906020870190808383885b8381101561057f578181015183820152602001610567565b50505050905090810190601f1680156105ac5780820380516001836020036101000a031916815260200191505b5094505050505060206040518083038186803b1580156105cb57600080fd5b505afa1580156105df573d6000803e3d6000fd5b505050506040513d60208110156105f557600080fd5b5051845190915060009061061d908690600990811061061057fe5b6020026020010151610ab6565b9050600a8110610674576040805162461bcd60e51b815260206004820152601b60248201527f537570706f7274696e672061206d6178206f66203130206c6f67730000000000604482015290519081900360640190fd5b61069f6106948460038151811061068757fe5b602002602001015161096c565b828151811061068757fe5b925060006106c0846000815181106106b357fe5b6020026020010151610b14565b905060606106d4856002815181106104e857fe5b90506106e68560018151811061068757fe5b94507f9b1bfa7fa9ee420a16e124f794c35ac9f90472acc99140eb2f6447c714cad8eb60001b61071c8660008151811061061057fe5b1461076e576040805162461bcd60e51b815260206004820152601e60248201527f4e6f742061207769746864726177206576656e74207369676e61747572650000604482015290519081900360640190fd5b60006107808660018151811061061057fe5b90506107928660028151811061061057fe5b6001600160a01b0316336001600160a01b0316146107e15760405162461bcd60e51b8152600401808060200182810382526028815260200180610d486028913960400191505060405180910390fd5b60006107ee836000610b34565b600080546040805163d931a86960e01b81523360048201526001600160a01b03898116602483015287811660448301526064820186905260848201859052600160a483018190528c901b60c4830181905292519596509194919092169263d931a8699260e4808201939182900301818387803b15801561086d57600080fd5b505af1158015610881573d6000803e3d6000fd5b5050604080516001600160a01b03968716602082015280820195909552949096166060840152506080808301919091528251808303909101815260a09091019091529750505050505050505b919050565b606092915050565b604051806040016040528060028152602001613a9960f01b81525081565b613a9981565b60009695505050505050565b60008060008084806020019051608081101561092557600080fd5b5080516020820151604083015160609093015191989097509195509350915050565b61094f610d2d565b506040805180820190915281518152602082810190820152919050565b606061097782610b50565b61098057600080fd5b600061098b83610b8a565b90506060816040519080825280602002602001820160405280156109c957816020015b6109b6610d2d565b8152602001906001900390816109ae5790505b50905060006109db8560200151610be6565b60208601510190506000805b84811015610a32576109f883610c49565b9150604051806040016040528083815260200184815250848281518110610a1b57fe5b6020908102919091010152918101916001016109e7565b509195945050505050565b8051606090610a4b57600080fd5b6000610a5a8360200151610be6565b83516040805191839003808352601f19601f8201168301602001909152919250606090828015610a91576020820181803883390190505b5090506000816020019050610aad848760200151018285610ce2565b50949350505050565b805160009015801590610acb57508151602110155b610ad457600080fd5b6000610ae38360200151610be6565b83516020808601518301805193945091849003929190831015610aad57506020919091036101000a90049392505050565b8051600090601514610b2557600080fd5b610b2e82610ab6565b92915050565b60008160200183511015610b4757600080fd5b50016020015190565b8051600090610b61575060006108cd565b6020820151805160001a9060c0821015610b80576000925050506108cd565b5060019392505050565b8051600090610b9b575060006108cd565b60008090506000610baf8460200151610be6565b602085015185519181019250015b80821015610bdd57610bce82610c49565b60019093019290910190610bbd565b50909392505050565b8051600090811a6080811015610c005760009150506108cd565b60b8811080610c1b575060c08110801590610c1b575060f881105b15610c2a5760019150506108cd565b60c0811015610c3e5760b5190190506108cd565b60f5190190506108cd565b80516000908190811a6080811015610c645760019150610cdb565b60b8811015610c7957607e1981019150610cdb565b60c0811015610ca65760b78103600185019450806020036101000a85510460018201810193505050610cdb565b60f8811015610cbb5760be1981019150610cdb565b60f78103600185019450806020036101000a855104600182018101935050505b5092915050565b80610cec57610d28565b5b60208110610d0c578251825260209283019290910190601f1901610ced565b8251825160208390036101000a60001901801990921691161782525b505050565b60405180604001604052806000815260200160008152509056fe5769746864726177657220616e64206275726e206578697420747820646f206e6f74206d61746368a265627a7a723158205a6e8989b07e23542fa22c18a6a3774e31bb6daa649bd33aa95f28657e36df4264736f6c63430005110032",
  "source": "pragma solidity ^0.5.2;\n\nimport {RLPReader} from \"solidity-rlp/contracts/RLPReader.sol\";\nimport {SafeMath} from \"openzeppelin-solidity/contracts/math/SafeMath.sol\";\n\nimport {BytesLib} from \"../../common/lib/BytesLib.sol\";\nimport {Common} from \"../../common/lib/Common.sol\";\nimport {RLPEncode} from \"../../common/lib/RLPEncode.sol\";\n\nimport {IErcPredicate} from \"./IPredicate.sol\";\n\ncontract ERC721PredicateBurnOnly is IErcPredicate {\n    using RLPReader for bytes;\n    using RLPReader for RLPReader.RLPItem;\n    using SafeMath for uint256;\n\n    // keccak256('Withdraw(address,address,uint256)')\n    bytes32 constant WITHDRAW_EVENT_SIG = 0x9b1bfa7fa9ee420a16e124f794c35ac9f90472acc99140eb2f6447c714cad8eb;\n\n    constructor(address _withdrawManager, address _depositManager)\n        public\n        IErcPredicate(_withdrawManager, _depositManager)\n    {}\n\n    function verifyDeprecation(\n        bytes calldata exit,\n        bytes calldata inputUtxo,\n        bytes calldata challengeData\n    ) external returns (bool) {}\n\n    function interpretStateUpdate(bytes calldata state)\n        external\n        view\n        returns (bytes memory b) {}\n\n    function startExitWithBurntTokens(bytes memory data)\n        public\n        returns (bytes memory)\n    {\n        RLPReader.RLPItem[] memory referenceTxData = data.toRlpItem().toList();\n        bytes memory receipt = referenceTxData[6].toBytes();\n        RLPReader.RLPItem[] memory inputItems = receipt.toRlpItem().toList();\n        uint256 age = withdrawManager.verifyInclusion(\n            data,\n            0, /* offset */\n            false /* verifyTxInclusion */\n        );\n        uint256 logIndex = referenceTxData[9].toUint();\n        require(logIndex < MAX_LOGS, \"Supporting a max of 10 logs\");\n        inputItems = inputItems[3].toList()[logIndex].toList(); // select log based on given logIndex\n\n        // \"address\" (contract address that emitted the log) field in the receipt\n        address childToken = RLPReader.toAddress(inputItems[0]);\n        bytes memory logData = inputItems[2].toBytes();\n        inputItems = inputItems[1].toList(); // topics\n        // now, inputItems[i] refers to i-th (0-based) topic in the topics array\n        // event Withdraw(address indexed token, address indexed from, uint256 amountOrTokenId, uint256 input1, uint256 output1)\n        require(\n            bytes32(inputItems[0].toUint()) == WITHDRAW_EVENT_SIG,\n            \"Not a withdraw event signature\"\n        );\n        address rootToken = address(RLPReader.toUint(inputItems[1]));\n        require(\n            msg.sender == address(inputItems[2].toUint()), // from\n            \"Withdrawer and burn exit tx do not match\"\n        );\n        uint256 tokenId = BytesLib.toUint(logData, 0);\n        uint256 exitId = age << 1; // last bit is reserved for housekeeping in erc20Predicate\n        withdrawManager.addExitToQueue(\n            msg.sender,\n            childToken,\n            rootToken,\n            tokenId,\n            bytes32(0x0), /* txHash */\n            true, /* isRegularExit */\n            exitId\n        );\n        return abi.encode(rootToken, tokenId, childToken, exitId);\n    }\n}\n",
  "sourcePath": "/Users/tavakayn/Projects/telcoin/telcoin/docker/polygon/code/contracts/contracts/root/predicates/ERC721PredicateBurnOnly.sol",
  "compiler": {
    "name": "solc",
    "version": "0.5.17+commit.d19bba13.Linux.g++"
  },
  "schemaVersion": "3.0.14",
  "updatedAt": "2021-07-26T16:29:42.230Z",
  "devdoc": {
    "methods": {}
  },
  "userdoc": {
    "methods": {}
  }
}