{
  "contractName": "OwnableLockable",
  "abi": [
    {
      "anonymous": false,
      "inputs": [
        {
          "indexed": true,
          "internalType": "address",
          "name": "previousOwner",
          "type": "address"
        },
        {
          "indexed": true,
          "internalType": "address",
          "name": "newOwner",
          "type": "address"
        }
      ],
      "name": "OwnershipTransferred",
      "type": "event"
    },
    {
      "constant": true,
      "inputs": [],
      "name": "isOwner",
      "outputs": [
        {
          "internalType": "bool",
          "name": "",
          "type": "bool"
        }
      ],
      "payable": false,
      "stateMutability": "view",
      "type": "function"
    },
    {
      "constant": true,
      "inputs": [],
      "name": "locked",
      "outputs": [
        {
          "internalType": "bool",
          "name": "",
          "type": "bool"
        }
      ],
      "payable": false,
      "stateMutability": "view",
      "type": "function"
    },
    {
      "constant": true,
      "inputs": [],
      "name": "owner",
      "outputs": [
        {
          "internalType": "address",
          "name": "",
          "type": "address"
        }
      ],
      "payable": false,
      "stateMutability": "view",
      "type": "function"
    },
    {
      "constant": false,
      "inputs": [],
      "name": "renounceOwnership",
      "outputs": [],
      "payable": false,
      "stateMutability": "nonpayable",
      "type": "function"
    },
    {
      "constant": false,
      "inputs": [
        {
          "internalType": "address",
          "name": "newOwner",
          "type": "address"
        }
      ],
      "name": "transferOwnership",
      "outputs": [],
      "payable": false,
      "stateMutability": "nonpayable",
      "type": "function"
    },
    {
      "constant": false,
      "inputs": [],
      "name": "lock",
      "outputs": [],
      "payable": false,
      "stateMutability": "nonpayable",
      "type": "function"
    },
    {
      "constant": false,
      "inputs": [],
      "name": "unlock",
      "outputs": [],
      "payable": false,
      "stateMutability": "nonpayable",
      "type": "function"
    }
  ],
  "bytecode": "0x6080604081905260008054610100338102610100600160a81b031990921691909117808355046001600160a01b0316917f8be0079c531659141344cd1fd0a4f28419497f9722a3daafe3b4186f6b6457e0908290a36102b7806100636000396000f3fe608060405234801561001057600080fd5b506004361061007d5760003560e01c8063a69df4b51161005b578063a69df4b5146100cc578063cf309012146100d4578063f2fde38b146100dc578063f83d08ba146101025761007d565b8063715018a6146100825780638da5cb5b1461008c5780638f32d59b146100b0575b600080fd5b61008a61010a565b005b61009461016a565b604080516001600160a01b039092168252519081900360200190f35b6100b861017e565b604080519115158252519081900360200190f35b61008a610194565b6100b86101af565b61008a600480360360208110156100f257600080fd5b50356001600160a01b03166101b8565b61008a6101d5565b61011261017e565b61011b57600080fd5b600080546040516101009091046001600160a01b0316907f8be0079c531659141344cd1fd0a4f28419497f9722a3daafe3b4186f6b6457e0908390a360008054610100600160a81b0319169055565b60005461010090046001600160a01b031690565b60005461010090046001600160a01b0316331490565b61019c61017e565b6101a557600080fd5b6101ad6101ee565b565b60005460ff1681565b6101c061017e565b6101c957600080fd5b6101d2816101fa565b50565b6101dd61017e565b6101e657600080fd5b6101ad610273565b6000805460ff19169055565b6001600160a01b03811661020d57600080fd5b600080546040516001600160a01b038085169361010090930416917f8be0079c531659141344cd1fd0a4f28419497f9722a3daafe3b4186f6b6457e091a3600080546001600160a01b0390921661010002610100600160a81b0319909216919091179055565b6000805460ff1916600117905556fea265627a7a72315820a2974cfbb1c64665b2b43799a6f6cbfa721a06115fbbda7b6ee47c8fbcf97d2664736f6c63430005110032",
  "source": "pragma solidity ^0.5.2;\nimport { Lockable } from \"./Lockable.sol\";\nimport { Ownable } from \"openzeppelin-solidity/contracts/ownership/Ownable.sol\";\n\ncontract OwnableLockable is Lockable, Ownable {\n    function lock() public onlyOwner {\n        super.lock();\n    }\n\n    function unlock() public onlyOwner {\n        super.unlock();\n    }\n}\n",
  "sourcePath": "/Users/tavakayn/Projects/telcoin/telcoin/docker/polygon/code/contracts/contracts/common/mixin/OwnableLockable.sol",
  "compiler": {
    "name": "solc",
    "version": "0.5.17+commit.d19bba13.Linux.g++"
  },
  "schemaVersion": "3.0.14",
  "updatedAt": "2021-07-26T16:29:42.170Z",
  "devdoc": {
    "methods": {
      "isOwner()": {
        "return": "true if `msg.sender` is the owner of the contract."
      },
      "owner()": {
        "return": "the address of the owner."
      },
      "renounceOwnership()": {
        "details": "Allows the current owner to relinquish control of the contract. It will not be possible to call the functions with the `onlyOwner` modifier anymore."
      },
      "transferOwnership(address)": {
        "details": "Allows the current owner to transfer control of the contract to a newOwner.",
        "params": {
          "newOwner": "The address to transfer ownership to."
        }
      }
    }
  },
  "userdoc": {
    "methods": {
      "renounceOwnership()": {
        "notice": "Renouncing ownership will leave the contract without an owner, thereby removing any functionality that is only available to the owner."
      }
    }
  }
}