{
  "contractName": "WithdrawManagerProxy",
  "abi": [
    {
      "inputs": [
        {
          "internalType": "address",
          "name": "_proxyTo",
          "type": "address"
        },
        {
          "internalType": "address",
          "name": "_registry",
          "type": "address"
        },
        {
          "internalType": "address",
          "name": "_rootChain",
          "type": "address"
        },
        {
          "internalType": "address",
          "name": "_exitNft",
          "type": "address"
        }
      ],
      "payable": false,
      "stateMutability": "nonpayable",
      "type": "constructor"
    },
    {
      "anonymous": false,
      "inputs": [
        {
          "indexed": true,
          "internalType": "uint256",
          "name": "exitId",
          "type": "uint256"
        }
      ],
      "name": "ExitCancelled",
      "type": "event"
    },
    {
      "anonymous": false,
      "inputs": [
        {
          "indexed": true,
          "internalType": "uint256",
          "name": "oldExitPeriod",
          "type": "uint256"
        },
        {
          "indexed": true,
          "internalType": "uint256",
          "name": "newExitPeriod",
          "type": "uint256"
        }
      ],
      "name": "ExitPeriodUpdate",
      "type": "event"
    },
    {
      "anonymous": false,
      "inputs": [
        {
          "indexed": true,
          "internalType": "address",
          "name": "exitor",
          "type": "address"
        },
        {
          "indexed": true,
          "internalType": "uint256",
          "name": "exitId",
          "type": "uint256"
        },
        {
          "indexed": true,
          "internalType": "address",
          "name": "token",
          "type": "address"
        },
        {
          "indexed": false,
          "internalType": "uint256",
          "name": "amount",
          "type": "uint256"
        },
        {
          "indexed": false,
          "internalType": "bool",
          "name": "isRegularExit",
          "type": "bool"
        }
      ],
      "name": "ExitStarted",
      "type": "event"
    },
    {
      "anonymous": false,
      "inputs": [
        {
          "indexed": true,
          "internalType": "uint256",
          "name": "exitId",
          "type": "uint256"
        },
        {
          "indexed": true,
          "internalType": "uint256",
          "name": "age",
          "type": "uint256"
        },
        {
          "indexed": false,
          "internalType": "address",
          "name": "signer",
          "type": "address"
        }
      ],
      "name": "ExitUpdated",
      "type": "event"
    },
    {
      "anonymous": false,
      "inputs": [
        {
          "indexed": false,
          "internalType": "address",
          "name": "_prevOwner",
          "type": "address"
        },
        {
          "indexed": false,
          "internalType": "address",
          "name": "_newOwner",
          "type": "address"
        }
      ],
      "name": "OwnerUpdate",
      "type": "event"
    },
    {
      "anonymous": false,
      "inputs": [
        {
          "indexed": true,
          "internalType": "address",
          "name": "previousOwner",
          "type": "address"
        },
        {
          "indexed": true,
          "internalType": "address",
          "name": "newOwner",
          "type": "address"
        }
      ],
      "name": "OwnershipTransferred",
      "type": "event"
    },
    {
      "anonymous": false,
      "inputs": [
        {
          "indexed": true,
          "internalType": "address",
          "name": "_new",
          "type": "address"
        },
        {
          "indexed": true,
          "internalType": "address",
          "name": "_old",
          "type": "address"
        }
      ],
      "name": "ProxyUpdated",
      "type": "event"
    },
    {
      "anonymous": false,
      "inputs": [
        {
          "indexed": true,
          "internalType": "uint256",
          "name": "exitId",
          "type": "uint256"
        },
        {
          "indexed": true,
          "internalType": "address",
          "name": "user",
          "type": "address"
        },
        {
          "indexed": true,
          "internalType": "address",
          "name": "token",
          "type": "address"
        },
        {
          "indexed": false,
          "internalType": "uint256",
          "name": "amount",
          "type": "uint256"
        }
      ],
      "name": "Withdraw",
      "type": "event"
    },
    {
      "payable": true,
      "stateMutability": "payable",
      "type": "fallback"
    },
    {
      "constant": true,
      "inputs": [],
      "name": "HALF_EXIT_PERIOD",
      "outputs": [
        {
          "internalType": "uint256",
          "name": "",
          "type": "uint256"
        }
      ],
      "payable": false,
      "stateMutability": "view",
      "type": "function"
    },
    {
      "constant": true,
      "inputs": [],
      "name": "ON_FINALIZE_GAS_LIMIT",
      "outputs": [
        {
          "internalType": "uint32",
          "name": "",
          "type": "uint32"
        }
      ],
      "payable": false,
      "stateMutability": "view",
      "type": "function"
    },
    {
      "constant": true,
      "inputs": [],
      "name": "exitNft",
      "outputs": [
        {
          "internalType": "contract ExitNFT",
          "name": "",
          "type": "address"
        }
      ],
      "payable": false,
      "stateMutability": "view",
      "type": "function"
    },
    {
      "constant": true,
      "inputs": [],
      "name": "exitWindow",
      "outputs": [
        {
          "internalType": "uint256",
          "name": "",
          "type": "uint256"
        }
      ],
      "payable": false,
      "stateMutability": "view",
      "type": "function"
    },
    {
      "constant": true,
      "inputs": [
        {
          "internalType": "uint256",
          "name": "",
          "type": "uint256"
        }
      ],
      "name": "exits",
      "outputs": [
        {
          "internalType": "uint256",
          "name": "receiptAmountOrNFTId",
          "type": "uint256"
        },
        {
          "internalType": "bytes32",
          "name": "txHash",
          "type": "bytes32"
        },
        {
          "internalType": "address",
          "name": "owner",
          "type": "address"
        },
        {
          "internalType": "address",
          "name": "token",
          "type": "address"
        },
        {
          "internalType": "bool",
          "name": "isRegularExit",
          "type": "bool"
        },
        {
          "internalType": "address",
          "name": "predicate",
          "type": "address"
        }
      ],
      "payable": false,
      "stateMutability": "view",
      "type": "function"
    },
    {
      "constant": true,
      "inputs": [
        {
          "internalType": "address",
          "name": "",
          "type": "address"
        }
      ],
      "name": "exitsQueues",
      "outputs": [
        {
          "internalType": "address",
          "name": "",
          "type": "address"
        }
      ],
      "payable": false,
      "stateMutability": "view",
      "type": "function"
    },
    {
      "constant": true,
      "inputs": [],
      "name": "implementation",
      "outputs": [
        {
          "internalType": "address",
          "name": "",
          "type": "address"
        }
      ],
      "payable": false,
      "stateMutability": "view",
      "type": "function"
    },
    {
      "constant": true,
      "inputs": [],
      "name": "isOwner",
      "outputs": [
        {
          "internalType": "bool",
          "name": "",
          "type": "bool"
        }
      ],
      "payable": false,
      "stateMutability": "view",
      "type": "function"
    },
    {
      "constant": true,
      "inputs": [],
      "name": "owner",
      "outputs": [
        {
          "internalType": "address",
          "name": "",
          "type": "address"
        }
      ],
      "payable": false,
      "stateMutability": "view",
      "type": "function"
    },
    {
      "constant": true,
      "inputs": [
        {
          "internalType": "bytes32",
          "name": "",
          "type": "bytes32"
        }
      ],
      "name": "ownerExits",
      "outputs": [
        {
          "internalType": "uint256",
          "name": "",
          "type": "uint256"
        }
      ],
      "payable": false,
      "stateMutability": "view",
      "type": "function"
    },
    {
      "constant": true,
      "inputs": [],
      "name": "proxyType",
      "outputs": [
        {
          "internalType": "uint256",
          "name": "proxyTypeId",
          "type": "uint256"
        }
      ],
      "payable": false,
      "stateMutability": "pure",
      "type": "function"
    },
    {
      "constant": false,
      "inputs": [],
      "name": "renounceOwnership",
      "outputs": [],
      "payable": false,
      "stateMutability": "nonpayable",
      "type": "function"
    },
    {
      "constant": false,
      "inputs": [
        {
          "internalType": "address",
          "name": "newOwner",
          "type": "address"
        }
      ],
      "name": "transferOwnership",
      "outputs": [],
      "payable": false,
      "stateMutability": "nonpayable",
      "type": "function"
    },
    {
      "constant": false,
      "inputs": [
        {
          "internalType": "address",
          "name": "_newProxyTo",
          "type": "address"
        }
      ],
      "name": "updateImplementation",
      "outputs": [],
      "payable": false,
      "stateMutability": "nonpayable",
      "type": "function"
    }
  ],
  "bytecode": "0x608060405262049d406002556009805463ffffffff60a01b1916760493e0000000000000000000000000000000000000000017905534801561004057600080fd5b506040516109ac3803806109ac8339818101604052608081101561006357600080fd5b5080516020820151604080840151606090940151600080546001600160a01b0319163317808255925194959394919286926001600160a01b039190911691907f8be0079c531659141344cd1fd0a4f28419497f9722a3daafe3b4186f6b6457e0908290a36100d9816001600160e01b0361011d16565b50600380546001600160a01b039485166001600160a01b031991821617909155600480549385169382169390931790925560098054919093169116179055506102a4565b61012e6001600160e01b0361027016565b61013757600080fd5b6001600160a01b0381166101ac57604080517f08c379a000000000000000000000000000000000000000000000000000000000815260206004820152601560248201527f494e56414c49445f50524f58595f414444524553530000000000000000000000604482015290519081900360640190fd5b6101be816001600160e01b0361028116565b610213576040517f08c379a00000000000000000000000000000000000000000000000000000000081526004018080602001828103825260258152602001806109876025913960400191505060405180910390fd5b6001546040516001600160a01b03918216918316907fd32d24edea94f55e932d9a008afc425a8561462d1b1f57bc6e508e9a6b9509e190600090a3600180546001600160a01b0319166001600160a01b0392909216919091179055565b6000546001600160a01b0316331490565b60006001600160a01b0382166102995750600061029f565b50803b15155b919050565b6106d4806102b36000396000f3fe6080604052600436106100dd5760003560e01c80638da5cb5b1161007f578063d11f045c11610059578063d11f045c146102dc578063ed4a0be81461030f578063edeca09b14610324578063f2fde38b14610339576100dd565b80638da5cb5b146102705780638f32d59b1461028557806396cbd812146102ae576100dd565b80634555d5c9116100bb5780634555d5c9146101eb5780635c60da1b14610200578063661429c814610231578063715018a61461025b576100dd565b8063025b22bc146101295780631e29848b1461015c578063342de17914610183575b60015460408051602036601f8101829004820283018201909352828252610127936001600160a01b0316926000918190840183828082843760009201919091525061036c92505050565b005b34801561013557600080fd5b506101276004803603602081101561014c57600080fd5b50356001600160a01b0316610394565b34801561016857600080fd5b50610171610499565b60408051918252519081900360200190f35b34801561018f57600080fd5b506101ad600480360360208110156101a657600080fd5b503561049f565b6040805196875260208701959095526001600160a01b03938416868601529183166060860152151560808501521660a0830152519081900360c00190f35b3480156101f757600080fd5b506101716104e8565b34801561020c57600080fd5b506102156104ed565b604080516001600160a01b039092168252519081900360200190f35b34801561023d57600080fd5b506101716004803603602081101561025457600080fd5b50356104fc565b34801561026757600080fd5b5061012761050e565b34801561027c57600080fd5b50610215610569565b34801561029157600080fd5b5061029a610578565b604080519115158252519081900360200190f35b3480156102ba57600080fd5b506102c3610589565b6040805163ffffffff9092168252519081900360200190f35b3480156102e857600080fd5b50610215600480360360208110156102ff57600080fd5b50356001600160a01b031661059c565b34801561031b57600080fd5b506101716105b7565b34801561033057600080fd5b506102156105bd565b34801561034557600080fd5b506101276004803603602081101561035c57600080fd5b50356001600160a01b03166105cc565b600080825160208401856127105a03f43d604051816000823e828015610390578282f35b8282fd5b61039c610578565b6103a557600080fd5b6001600160a01b0381166103f8576040805162461bcd60e51b8152602060048201526015602482015274494e56414c49445f50524f58595f4144445245535360581b604482015290519081900360640190fd5b610401816105e9565b61043c5760405162461bcd60e51b815260040180806020018281038252602581526020018061067b6025913960400191505060405180910390fd5b6001546040516001600160a01b03918216918316907fd32d24edea94f55e932d9a008afc425a8561462d1b1f57bc6e508e9a6b9509e190600090a3600180546001600160a01b0319166001600160a01b0392909216919091179055565b600a5481565b60066020526000908152604090208054600182015460028301546003840154600490940154929391926001600160a01b039182169282811692600160a01b90910460ff16911686565b600290565b6001546001600160a01b031690565b60076020526000908152604090205481565b610516610578565b61051f57600080fd5b600080546040516001600160a01b03909116907f8be0079c531659141344cd1fd0a4f28419497f9722a3daafe3b4186f6b6457e0908390a3600080546001600160a01b0319169055565b6000546001600160a01b031690565b6000546001600160a01b0316331490565b600954600160a01b900463ffffffff1681565b6008602052600090815260409020546001600160a01b031681565b60025481565b6009546001600160a01b031681565b6105d4610578565b6105dd57600080fd5b6105e68161060c565b50565b60006001600160a01b03821661060157506000610607565b50803b15155b919050565b6001600160a01b03811661061f57600080fd5b600080546040516001600160a01b03808516939216917f8be0079c531659141344cd1fd0a4f28419497f9722a3daafe3b4186f6b6457e091a3600080546001600160a01b0319166001600160a01b039290921691909117905556fe44455354494e4154494f4e5f414444524553535f49535f4e4f545f415f434f4e5452414354a265627a7a72315820a83caacac9a51473d47ffa2810120f1dfa520e539dcece2a4977dd071588954f64736f6c6343000511003244455354494e4154494f4e5f414444524553535f49535f4e4f545f415f434f4e5452414354",
  "source": "pragma solidity ^0.5.2;\n\nimport {Registry} from \"../../common/Registry.sol\";\nimport {Proxy} from \"../../common/misc/Proxy.sol\";\nimport {WithdrawManagerStorage} from \"./WithdrawManagerStorage.sol\";\nimport {RootChain} from \"../RootChain.sol\";\nimport {ExitNFT} from \"./ExitNFT.sol\";\n\ncontract WithdrawManagerProxy is Proxy, WithdrawManagerStorage {\n    constructor(\n        address _proxyTo,\n        address _registry,\n        address _rootChain,\n        address _exitNft\n    ) public Proxy(_proxyTo) {\n        registry = Registry(_registry);\n        rootChain = RootChain(_rootChain);\n        exitNft = ExitNFT(_exitNft);\n    }\n}\n",
  "sourcePath": "/Users/tavakayn/Projects/telcoin/telcoin/docker/polygon/code/contracts/contracts/root/withdrawManager/WithdrawManagerProxy.sol",
  "compiler": {
    "name": "solc",
    "version": "0.5.17+commit.d19bba13.Linux.g++"
  },
  "schemaVersion": "3.0.14",
  "updatedAt": "2021-07-26T17:17:56.933Z",
  "devdoc": {
    "methods": {
      "isOwner()": {
        "return": "true if `msg.sender` is the owner of the contract."
      },
      "owner()": {
        "return": "the address of the owner."
      },
      "renounceOwnership()": {
        "details": "Allows the current owner to relinquish control of the contract. It will not be possible to call the functions with the `onlyOwner` modifier anymore."
      },
      "transferOwnership(address)": {
        "details": "Allows the current owner to transfer control of the contract to a newOwner.",
        "params": {
          "newOwner": "The address to transfer ownership to."
        }
      }
    }
  },
  "userdoc": {
    "methods": {
      "renounceOwnership()": {
        "notice": "Renouncing ownership will leave the contract without an owner, thereby removing any functionality that is only available to the owner."
      }
    }
  }
}